:100000000C9405110C9426110C9426110C94711A61
:100010000C94451A0C94CA1A0C949E1A0C9426112E
:100020000C9426110C9426110C9426110C94261174
:100030000C9426110C948E330C9426110C943934A4
:100040000C9426110C94B6C00C9426110C94261115
:100050000C9426110C9426110C9426110C94261144
:100060000C9426110C94B6970C94E7320C9426113C
:100070000C9426110C9426110C94F1240C940E333C
:100080000C948D910C9472920C9426110C94261160
:100090000C9426110C9426110C9426110C94261104
:1000A0000C9426110C9426110C9426110C942611F4
:1000B0000C9426110C9426110C9426110C942611E4
:1000C0000C9426110C9426110C9426110C942611D4
:1000D0000C94EC160C9426110C9426110C942611F9
:1000E0000C9426115F135F136F136F136F136F134D
:1000F00046134D136F135213521356135D134613C9
:1001000056136F136F135F1361135F136F136F1326
:100110006F13561363135B136F136F136F13461331
:1001200046134D135213521356135D135B136F1383
:100130006F136F135F135F131B1B1F1B251B2B1BE1
:10014000191B111B171B271B321B4D2A252A252A79
:10015000622A622A2D2A2D2A662A662A662A662A99
:10016000662A662A662A662A4B2A4D2A4D2A502A72
:10017000532A552A572A572A572A642A592A5F2A66
:10018000662A2C2A2C2A662A662A662A662A662A63
:10019000662A662A5F2A4B2A4D2A4D2A502A552A5A
:1001A000E935FB35163683369A368B378B378B37E6
:1001B0008B37B938B938AC38B6381D38F137F13724
:1001C000F537F537FA37FA373E3841386338633850
:1001D000633863386338633817381D381D38203862
:1001E00038383B382338233823385D3829382F38BE
:1001F0006338F837F8373E383E384138633863386B
:10020000633863382F3817381D381D382038195097
:10021000275036504051D5515F526C527952B152ED
:10022000C752D852ED52FE524153285037504151D7
:10023000D65160526D527A52B252C852D952EE52D1
:10024000FF529E73AE73BB7319747674887499747D
:100250009D73AD73BA731874757487749974E87765
:100260009C783B793E796C79B479D379D679257AC3
:10027000F5790C7A4A7A697A6F7A957A817ABD7AB9
:10028000D67A027B177B2A8D028D068D0B8D128DFF
:10029000168D1B8DCEACEBACA5ADDEADDEADCEAC20
:1002A000EBACA5ADDEADDEADCBAECEAECEAE55AFDA
:1002B0005BAF7EAFA9AFD9AFFFAF30B070B070B059
:1002C00070B070B030B070B070B070B070B0D1B607
:1002D000E0B6CFB7E0B6E0B6E0B6CFB7E0B6E0B68E
:1002E000FCB70EB864B881B893B8B9B8CDB8E6B861
:1002F00085B9D4B954BA30360C0106466F726D61B7
:100300007474696E6720454550524F4D00426164D8
:1003100020454570726F6D20446174610045455001
:10032000524F4D00535053008040FFFFFFFFFFFF2F
:10033000FFFFFFFFFFFFFFFFFFFFFFFFFFFFFFFFCD
:10034000FFFFFFFFFFFFFFFFFFFFFFFFFFFFFFFFBD
:10035000FFFFFFFFFFFFFFFFFFFFFFFFFFFFFFFFAD
:10036000FFFFFFFFFFFFFFFFFFFFFFFFFFFFFFFF9D
:10037000FFFFFFFFFFFFFFFFFFFFFFFFFFFFFFFF8D
:10038000FFFFFFFFFFFFFFFFFFFFFFFFFFFFFFFF7D
:10039000FFFFFFFFFFFFFFFFFFFFFFFFFFFFFFFF6D
:1003A000FFFFFFFFFFFFFFFFFFFFFFFFFFFFFFFF5D
:1003B000FFFFFFFFFFFFFFFFFFFFFFFFFFFFFFFF4D
:1003C000FFFFFFFFFFFFFFFFFFFFFFFFFFFFFFFF3D
:1003D000FFFFFFFFFFFFFFFFFFFFFFFFFFFFFFFF2D
:1003E000FFFFFFFFFFFFFFFFFFFFFFFFFFFFFFFF1D
:1003F000FFFFFFFFFFFFFFFFFFFFFFFFFFFFFFFF0D
:10040000FFFFFFFFFFFFFFFFFFFFFFFFFFFFFFFFFC
:10041000FFFFFFFFFFFFFFFFFFFFFFFFFFFFFFFFEC
:10042000FFFFFFFFFFFFFFFFFFFFFFFFFFFFFFFFDC
:10043000FFFFFFFFFFFFFFFFFFFFFFFFFFFFFFFFCC
:10044000FFFFFFFFFFFFFFFFFFFFFFFFFFFFFFFFBC
:10045000FFFFFFFFFFFFFFFFFFFFFFFFFFFFFFFFAC
:10046000FFFFFFFFFFFFFFFFFFFFFFFFFFFFFFFF9C
:10047000FFFFFFFFFFFFFFFF07070707070707074C
:100480000707070707070707070707FFFFE7C7076C
:1004900007070707071F7FFFFFFF3F0F0707070734
:1004A0000787E7F7FFFFFFFFFFFFFFFFFFFFFFFFEC
:1004B0001F070303C1F1F8F8F8F8F0F1C1030307CF
:1004C0001FFFFFFF00000000F8F8F87000010307AD
:1004D000FFFF00000000383838383838FFFF0000D0
:1004E000000081030F1F3FFFFF00000000FFFFFF20
:1004F000000103070F1F3F7FFEFEFEFEFEFE000011
:100500000000000000FEFEFEFEFEFEFFFFFFFFFFFC
:10051000FEF8F0C08000000103000000C0E0F8FC1D
:10052000FFFFFFFFFFFFFFFFFFFFFFFFFFFFFFFFDB
:10053000F8E0C0C0838F1F1F1F1F1F8F83C0C0E044
:10054000F8FFFFFF00000000F8F8F8F8F8FCFCFFE7
:10055000FFFF000000001E1E1E1E1E1EFFFF0000EB
:100560000000FFFFFCF8F0C08100000000FFFFFF6B
:10057000000080C0E0F0F8FCFEFFFFFFFFFF00007E
:100580000000000000FFFFFFFFFFFFFFFFFFFF7FF6
:100590001F0F0301000080E0F0C000000003071FF0
:1005A0003FFFFFFFFFFFFFFFFFFFFFFFFFFFFFFF1B
:1005B000E7E7E7E7E7E7E7E7E7E7E7E7E7E7E7E7CB
:1005C000E7E7E7E7E7E7E7E7E7E7E7E7E7E7E7E7BB
:1005D000E7E7E7E7E7E7E7E7E7E7E7E7E7E7E7E7AB
:1005E000E7E7E7E7E7E7E7E7E7E7E7E7E7FFFFFF53
:1005F000FEFFFFFFFFFFFFFFFFFFFFFFFFFFE0E04A
:10060000E0E0E0E0E0FFFFFFFFFFFFEFE7E1E0E019
:10061000E0E0E0F0F8FEFFFFFFFFFFFCF8E0E0E0C5
:10062000E0E0E1E7EFFFFFFFFFFFFFFFFFFFFFFF5E
:10063000FFFFFFFFFFFFFFFFFFFFFFFFFFFFFFFFCA
:10064000FFFFFFFFFFFFFFFFFFFFFFFFFFFFFFFFBA
:10065000FFFFFFFFFFFFFFFFFFFFFFFFFFFFFFFFAA
:10066000FFFFFFFFFFFFFFFFFFFFFFFFFFFFFFFF9A
:10067000FFFFFFFFFFFFFFFFFFFFFFFFFFFFFFFF8A
:10068000FFFFFFFFFFFFFFFFFFFFFFFFFFFFFFFF7A
:10069000FFFFFFFFFFFFFFFFFFFFFFFFFFFFFFFF6A
:1006A000FFFFFFFFFFFFFFFFFFFFFFFFFFFFFFFF5A
:1006B000FFFFFFFFFFFFFFFFFFFFFFFFFFFFFFFF4A
:1006C000FFFFFFFFFFFFFFFFFFFFFFFFFFFFFFFF3A
:1006D000FFFFFFFFFFFFFFFFFFFFFFFFFFFFFFFF2A
:1006E000FFFFFFFFFFFFFFFFFFFFFFFFFFFFFFFF1A
:1006F000FFFFFFFFFFFFFFFFFFFFFFFFFFFFFFFF0A
:10070000FFFFFFFFFFFFFFFFFFFFFFFFFFFFFFFFF9
:10071000FFFFFFFFFFFFFFFFFFFFFFFFFFFFFFFFE9
:10072000FFFFFFFFFFFFFFFFFFFF53504500416C3E
:1007300061726D732044697361626C656400414C41
:1007400041524D5300534420436172642046756CFE
:100750006C002E637376002F4C4F4753005B4D4562
:100760004E555D085B455849545D00536176696E8E
:1007700067206D6F64656C2073657474696E677350
:10078000005348555454494E4720444F574E00019A
:1007900001020A3C01010414500101081E64020216
:1007A0000F287805051E32961B1E272D36394B4E15
:1007B000636C7278878D939CB1B4C6C9D2D8E1E4DA
:1007C000454550524F4D206C6F77206D656D00543C
:1007D00068726F74746C65206E6F742069646C65E8
:1007E000005448524F54544C450044656C65746540
:1007F00000466F726D617400496E666F726D617450
:10080000696F6E0053442043415244001777A91B7F
:10081000C75CC659FC5ADB59AD5C53442043617236
:1008200064204572726F7200466F726D61747469F4
:100830006E672E2E2E0005030706060D0505000027
:100840000000000000000000FFFFFFFFFFFFFFFFB0
:10085000FFFFFFFFFFFF00660076003E001EFFFF68
:10086000FFFFFFFFFFFF8001800180018001800109
:10087000800180018001FFFFFFFFFFFFFFFF0030CD
:10088000007800780030FFFFFFFFFFFFFFFF0060F0
:100890000060006000600060006000600060FFFFBA
:1008A000FFFFFFFFF81FFC3F0E70066006600E7032
:1008B000FC3FF81FFFFFFFFF000018601C60FE7F79
:1008C000FE7F006000600000FFFFFFFF18781C7CC7
:1008D0000E6E06678663CE61FC607860FFFFFFFFE7
:1008E00006600660866186618661CE73FC3F781E75
:1008F000FFFFFFFF8007C007E006700638061C06F2
:10090000FE7FFE7FFFFFFFFF7E187E386670666009
:100910006660E670C63F861FFFFFFFFFF81FFC3FC3
:100920008E71866186618E731C3F181EFFFFFFFF6C
:1009300006000600867FC67FE60076003E001E00A9
:10094000FFFFFFFF781EFC3FCE7386618661CE738A
:10095000FC3F781EFFFFFFFF7800FC00CE61867130
:100960008639CE1DFC0FF807FFFFFFFF0000300C9B
:10097000781E781E300CFFFFFFFFFFFFFFFFE07FB8
:10098000F07FB8019C018E018E019C01B801F07FBF
:10099000E07FFE7FFE7F866186618661866186617B
:1009A000CE73FC3F781EF81FFC3F0E700660066099
:1009B000066006600E701C381818FE7FFE7F066009
:1009C000066006600E701C38381CF00FE007FE7FD2
:1009D000FE7F8661866186618661866186610660CA
:1009E0000660FE7FFE7F8601860186018601860104
:1009F000860106000600F81FFC3F0E700660866147
:100A0000866186618E719C7F983FFE7FFE7F8001AC
:100A100080018001800180018001FE7FFE7FFFFF59
:100A2000FFFF06600660FE7FFE7F06600660FFFF38
:100A3000FFFF001800380070006006600670FE3F7F
:100A4000FE1F06000600FE7FFE7F8001C003E00758
:100A5000700E381C1C380E700660FE7FFE7F006032
:100A60000060006000600060006000600060FE7F69
:100A7000FE7F1C003800F001F00138001C00FE7FF2
:100A8000FE7FFE7FFE7F7000E000C0018003000754
:100A9000000EFE7FFE7FF81FFC3F0E7006600660B2
:100AA000066006600E70FC3FF81FFE7FFE7F860129
:100AB0008601860186018601CE01FC007800F81FC0
:100AC000FC3F0E7006600666066E063C0E38FC7F24
:100AD000F867FE7FFE7F860186018607860F861DEA
:100AE000CE39FC7078607818FC38CE7186618661EA
:100AF000866186618E731C3F181E06000600060084
:100B00000600FE7FFE7F0600060006000600FE1FB0
:100B1000FE3F007000600060006000600070FE3FFB
:100B2000FE1FFE07FE0F001C00380070007000382A
:100B3000001CFE0FFE07FE1FFE3F00700070003E0F
:100B4000003E00700070FE3FFE1F1E783E7C700E5F
:100B5000E007C003C003E007700E3E7C1E787E00F5
:100B6000FE00C0018003007F007F8003C001FE0003
:100B70007E000678067C066E06678663C661E660C0
:100B800076603E601E600018003C607E60666066B5
:100B900060666066E066C07F807FFE7FFE7F80616A
:100BA000C061E06060606060E070C03F801F801FD7
:100BB000C03FE070606060606060606060700038DE
:100BC0000018801FC03FE07060606060E060C0613E
:100BD0008061FE7FFE7F801FC03FE07660666066BA
:100BE00060666066E066C007800780018001F87F6C
:100BF000FC7F8E01860106000E001C001800E0013B
:100C0000F003386718661866186618661876F83F95
:100C1000F81FFE7FFE7F8001C001E00060006000E1
:100C2000E000C07F807FFFFFFFFF60606060E67FC5
:100C3000E67F00600060FFFFFFFFFFFF0018003845
:100C40000070006060606070E63FE61FFFFFFE7F9F
:100C5000FE7F0006000F801FC039E0706060FFFF5C
:100C6000FFFFFFFFFFFF06600660FE7FFE7F006064
:100C70000060FFFFFFFFE07FE07F6000E000C00753
:100C8000C007E000E000C07F807FE07FE07F800160
:100C9000C001E00060006000E000C07F807F801F36
:100CA000C03FE0706060606060606060E070C03FA6
:100CB000801FE07FE07F60066006600660066006D9
:100CC000E007C00380018001C003E0076006600602
:100CD0006006C0078007E07FE07FE07FE07F800163
:100CE000C001E00060006000E000C00180018061A0
:100CF000C063E0676066606660666066607E003C58
:100D0000001860006000F81FF83F607060600060CD
:100D1000007000380018E01FE03F007000600060C5
:100D2000007000380018E07FE07FE007E00F001C53
:100D30000038007000700038001CE00FE007E01F72
:100D4000E03F007000700038003800700070E03F35
:100D5000E01F6060E070C039801F000F000F801F2F
:100D6000C039E0706060E001E00300670066006683
:100D7000006600660076E03FE01F606060706078AB
:100D8000607C606E6067E063E061E060606000006E
:100D9000FFFFFFFFFF6FFFFFFF070007FF1830187F
:100DA0000C06087F7F7F08231308646236495522AA
:100DB00050FF0503FFFFFF1C2241FFFF41221CFFE4
:100DC00014083E081408083E0808FF5030FFFF00D2
:100DD000080808FFFFFF40FFFF20100804023E4103
:100DE000413EFF00427F40FF62514946FF41494971
:100DF00036FF1814127FFF27454539FF3E49493217
:100E0000FF01790503FF36494936FF0649291EFFD0
:100E1000FF3636FFFFFF5636FFFFFF08142241144E
:100E20001414141441221408FF0201510906060982
:100E30000906FF7E0909097E7F494949363E41413D
:100E400041227F4141221C7F494949417F090909CB
:100E5000013E4149497A7F0808087FFF417F41FFF1
:100E60002040413F017F081422417F404040FF7FE6
:100E7000020C027F7F0408107F3E4141413E7F0902
:100E80000909063E4151215E7F0919294626494933
:100E9000493201017F01013F4040403F1F20402077
:100EA0001F3F4030403F6314081463070870080771
:100EB0006151494543FF7F4141FF0204081020FF73
:100EC00041417FFF605846586040404040FFFF016D
:100ED0000204FF20545454787F4844443838444432
:100EE0004420384444487F3854545418087E09013B
:100EF000020C5252523E7F08040478FF447D40FFAA
:100F00002040443DFF7F102844FFFF417F40FF7C8D
:100F1000041804787C0804047838444444387C1469
:100F2000141408081414187C7C0804040848545449
:100F30005420043F4440203C4040207C1C20402062
:100F40001C3C4020403C44281028440C5050503C4D
:100F50004464544C4410081008FFFFFF7FFFFF411A
:100F6000225428FF0808221C08081C2208084E4F9B
:100F70002044415441004163633A00034F46464FC9
:100F80004E00032D2D2D494E5604013443480136A1
:100F900043480138434831304348313243483134C3
:100FA000434831364348055175696574416C617237
:100FB0006D4E6F4B6579416C6C0020034E6F205273
:100FC000456152456203524561524562034F4646B0
:100FD000202B3D203A3D03434831434832434833B8
:100FE000434834064578706F0020457846696E6541
:100FF00046696E6500204D656469756D436F617269
:101000007365015245544131323361620650504D8F
:1010100000202050504D31360050504D73696D0303
:10102000504F534E4547044F4646004B6579734336
:1010300074726C426F74684F4E0020032D2D2D7812
:101040003E30783C307C787C663E30663C307C6656
:101050007C0841646400202020204D756C74697008
:101060006C795265706C61636500022B3D2A3D3AD4
:101070003D034F46464F4E00527564456C655468BB
:101080007241696C052D2D2D0020617B7800206157
:101090003E780020613C7800207C617C3E787C6159
:1010A0007C3C78414E4400204F52002020584F5243
:1010B0000020613D620020613E620020613C6200D0
:1010C000205E7D7800207C5E7C7D7854696D0020F8
:1010D000476C7565000A4F766572722E00202020DD
:1010E000547261696E6572002020496E73742E20FF
:1010F0005472696D5265736574002020202041642C
:101100006A757374200020204265657000202020DD
:101110002020506C617920547261636B506C61794E
:1011200020426F746800506C61792056616C002019
:101130005B566172696F5D0020205B486170746965
:10114000635D00205344204C6F6773002020426190
:10115000636B6C696768740004546D7231546D720E
:1011600032416C6C0054656C6D52456100524562B1
:1011700000044270310042703200427033005772F6
:101180006E3157726E32436865655261746154699D
:10119000636B5369726E52696E6753636946526F2F
:1011A000627443687270546164614372636B416C32
:1011B000726D042D2D2D0042617474546D72315482
:1011C0006D72325478002052780020413100204165
:1011D000320020416C740052706D004675656C548D
:1011E0003100205432002053706400446973744706
:1011F000416C7443656C6C43656C735666617343F4
:10120000757272436E7370506F77724163635841A9
:101210006363594163635A4864670056537064417D
:101220005370646454450041312D0041322D00411A
:101230006C742D416C742B52706D2B54312B0054F7
:10124000322B005370642B4473742B4153702B4327
:10125000656C2D436C732D5666732D4375722B5040
:1012600077722B4163630054696D6503560020411A
:1012700000206D2F732D00206B6D686D00204000E5
:10128000202500206D41006D4168570020032D2D61
:101290002D59656C4F7267526564013C3E074E6F75
:1012A0006E65002020487562002020205753484872
:1012B00069676804444D53004E4D4541032D2D2D63
:1012C00041310041320046415343656C04416C7426
:1012D00000416C742B565370644131002041320040
:1012E000044E756D7342617273042D2D2D003132E1
:1012F00030003132305831343000393000054D651E
:101300006E75004578697400446F776E0055700003
:10131000202052696768744C65667400032D2D2D7A
:101320004944304944314944325448525255444565
:101330004C4541494C47454154524E74526C74528D
:101340007274456474457574546474547574416C56
:101350007441725245615245624C31004C32004C2E
:1013600033004C34004C35004C36004C37004C38C0
:10137000004C39004C31304C31314C31324F4E0041
:101380004F6E65042D2D2D0052756400456C65006F
:101390005468720041696C005031002050320020C6
:1013A0005033002052456100524562004D415800C3
:1013B00043594331435943324359433354726D5275
:1013C00054726D4554726D5454726D4133504F5385
:1013D000034F46464F4E00544873544825544874B2
:1013E00005444154453A54494D453A0C4F46460050
:1013F0002020202020202020466C6967687400206F
:10140000202020204D616E75616C205265736574DB
:101410000054783A0052783A004D696E2052737346
:10142000690008507265737320616E79204B65798D
:10143000004D4958455200535449434B53002F33F4
:1014400032002F31360044656C657465004D6F764F
:101450006500436F707900496E7365727420416650
:1014600074657200496E73657274204265666F72AE
:1014700065004564697400496E766572742054682D
:10148000723F00065472696D73203D3E20537562B1
:101490007472696D7300534552564F530000050531
:1014A0000505050505050505050505050505004DA9
:1014B0006F6465004E6F2066726565206D697865A2
:1014C0007221004E6F2066726565206578706F210D
:1014D0000053696465004E2F41004578706F00002D
:1014E00000000500536C6F772020446E00536C6F32
:1014F00077202055700044656C617920446E00446B
:10150000656C6179205570004D756C747078004F72
:101510004646005761726E696E67004469666600F0
:1015200043757276650044526578005472696D00A7
:101530005765696768740001536F757263650000D1
:10154000000001010500000000000000050000454A
:10155000444954204D49582000494E534552542087
:101560004D4958200043616C004D756C7469706C76
:10157000696572004D6F6465062520536F7572634F
:101580006500536C61766500545241494E455200E6
:1015900000020202020046573A204F70656E54580E
:1015A0002D6D656761323536301E564552531F1B0F
:1015B0003A20322E312E391E444154451F1B3A2009
:1015C000323032332D31302D32311E54494D451FCA
:1015D0001B3A2030353A31333A34301E45455052AB
:1015E0001F1B3A203231370056455253494F4E00A7
:1015F000064D4F564520535449434B532F504F549B
:101600005300065B4D454E555D205748454E2044DE
:101610004F4E45000453455420535449434B5320E7
:101620004D4944504F494E5400085B4D454E555D61
:1016300020544F2053544152540043414C4942528C
:101640004154494F4E001208001038101010381045
:10165000000010440092004410000000000044FE0E
:1016600044000000104400920044100000104400A8
:101670009200441000000044FE44000000000010EE
:101680004400920044100000103810101038100070
:101690005472696D2D202B005357495443484553CC
:1016A0000003010200040506074261747465727943
:1016B0002043616C69620042473A004100414E415B
:1016C000530053706565643A00536563746F7273B9
:1016D0003A0053697A653A00547970653A00534488
:1016E00020494E464F002072656D6F766564002F6D
:1016F00000436F6E6669726D20466F726D61743F54
:1017000000AC2000001A2092011E2026202020215B
:1017100020C602302060013920520100007D010006
:10172000000000182019201C201D20222013201446
:1017300020DC02222161013A20530100007E017861
:1017400001A000A100A200A300A400A500A600A77C
:1017500000A800A900AA00AB00AC00AD00AE00AF2D
:1017600000B000B100B200B300B400B500B600B7DD
:1017700000B800B900BA00BB00BC00BD00BE00BF8D
:1017800000C000C100C200C300C400C500C600C73D
:1017900000C800C900CA00CB00CC00CD00CE00CFED
:1017A00000D000D100D200D300D400D500D600D79D
:1017B00000D800D900DA00DB00DC00DD00DE00DF4D
:1017C00000E000E100E200E300E400E500E600E7FD
:1017D00000E800E900EA00EB00EC00ED00EE00EFAD
:1017E00000F000F100F200F300F400F500F600F75D
:1017F00000F800F900FA00FB00FC00FD00FE00FF0D
:1018000000808182838485868788898A8B8C8D8EEF
:101810008F90919293949596979899AD9B8C9DAE4D
:101820009FA021A2A3A4A5A6A7A8A9AAABACADAED0
:10183000AFB0B1B2B3B4B5B6B7B8B9BABBBCBDBE40
:10184000BFC0C1C2C3C4C5C6C7C8C9CACBCCCDCE30
:10185000CFD0D1D2D3D4D5D6D7D8D9DADBDCDDDE20
:10186000DFC0C1C2C3C4C5C6C7C8C9CACBCCCDCEF0
:10187000CFD0D1D2D3D4D5D6F7D8D9DADBDCDDDEE0
:101880009F4F776E00476C6F62616C205661726982
:1018900061626C65730046616465204F7574004633
:1018A00061646520496E00522E456E637300547268
:1018B000696D73004E616D6500000003010000FF5B
:1018C0000202020202000000FF0101010101464C78
:1018D00049474854204D4F44450006436865636BB3
:1018E0000A5472696D73002864656661756C7429A9
:1018F00000464C49474854204D4F44455300793DDC
:1019000000783D0070740070742700015479706590
:1019100000435552564500435552564553005049D1
:101920005420446972656374696F6E0041494C20AC
:10193000446972656374696F6E00454C4520446963
:1019400072656374696F6E005377617368205269C2
:101950006E6700436F6C6C656374697665005377DE
:1019600061736820547970650048454C492053459F
:101970005455500001B275B6A57B52718C4E894EFC
:10198000A1457F7CE2BD00BB69AC52782043686111
:101990006E6E656C204F72640053706C61736820CA
:1019A00073637265656E00014475726174696F6E70
:1019B0000001416C61726D004261636B6C69676824
:1019C0007400526F74456E63204E61766967000142
:1019D000496E61637469766974790001536F756E3D
:1019E00064204F666600014D656D6F7279204C6F03
:1019F00077000142617474657279204C6F77004101
:101A00006C61726D7300436F6E7472617374000168
:101A10004C656E67746800014D6F646500536F75A7
:101A20006E640054696D65001F1C1F1E1F1E1F1F62
:101A30001E1F1E1F4461746500524144494F2053CC
:101A40004554555000000202FF000000FF00000056
:101A50000000FF0000000000FF01410042004300C1
:101A60004400450046004700480049004A004B003A
:101A70004C004D004E004F005000510052005300EA
:101A80005400550056005700580059005A002100D4
:101A9000E0FFE1FFE5FFE2FFE3FFC000C100C2009D
:101AA000C300C400C500C600C700C800C900CA0002
:101AB000CB00CC00CD00CE00CF00D000D100D200B2
:101AC000D300D400D500D600D800D900DA00DB005E
:101AD000DC00DD00DE0078010001020104010601E6
:101AE00008010A010C010E01100112011401160176
:101AF00018011A011C011E012001220124012601E6
:101B000028012A012C012E01300132013401360155
:101B100039013B013D013F014101430145014701BD
:101B20004A014C014E015001520154015601580125
:101B30005A015C015E016001620164016601680195
:101B40006A016C016E017001720174017601790104
:101B50007B017D019101910392039303940395030B
:101B600096039703980399039A039B039C039D0391
:101B70009E039F03A003A103A303A403A503A6033D
:101B8000A703A803A903AA03100411041204130451
:101B90001404150416041704180419041A041B0469
:101BA0001C041D041E041F04200421042204230419
:101BB0002404250426042704280429042A042B04C9
:101BC0002C042D042E042F04010402040304040435
:101BD000050406040704080409040A040B040C04A1
:101BE0000E040F04602161216221632164216521BB
:101BF00066216721682169216A216B216C216D2191
:101C00006E216F2121FF22FF23FF24FF25FF26FFE6
:101C100027FF28FF29FF2AFF2BFF2CFF2DFF2EFF78
:101C20002FFF30FF31FF32FF33FF34FF35FF36FF28
:101C300037FF38FF39FF3AFF0000610062006300A0
:101C40006400650066006700680069006A006B0058
:101C50006C006D006E006F00700071007200730008
:101C60007400750076007700780079007A00A10092
:101C7000A200A300A500AC00AF00E000E100E2007C
:101C8000E300E400E500E600E700E800E900EA0020
:101C9000EB00EC00ED00EE00EF00F000F100F200D0
:101CA000F300F400F500F600F800F900FA00FB007C
:101CB000FC00FD00FE00FF0001010301050107011A
:101CC00009010B010D010F0111011301150117018C
:101CD00019011B011D011F012101230125012701FC
:101CE00029012B012D012F0131013301350137016C
:101CF0003A013C013E0140014201440146014801D4
:101D00004B014D014F01510153015501570159013B
:101D10005B015D015F0161016301650167016901AB
:101D20006B016D016F0171017301750177017A011A
:101D30007C017E019201B103B203B303B403B50386
:101D4000B603B703B803B903BA03BB03BC03BD03AF
:101D5000BE03BF03C003C103C303C403C503C6035B
:101D6000C703C803C903CA0330043104320433046F
:101D70003404350436043704380439043A043B0487
:101D80003C043D043E043F04400441044204430437
:101D90004404450446044704480449044A044B04E7
:101DA0004C044D044E044F04510452045304540493
:101DB000550456045704580459045A045B045C043F
:101DC0005E045F04702171217221732174217521D9
:101DD00076217721782179217A217B217C217D212F
:101DE0007E217F2141FF42FF43FF44FF45FF46FF25
:101DF00047FF48FF49FF4AFF4BFF4CFF4DFF4EFF97
:101E00004FFF50FF51FF52FF53FF54FF55FF56FF46
:101E100057FF58FF59FF5AFF0000537769746368F2
:101E2000004C6F6164696E67206D6F64656C2E2E67
:101E30002E00496E636F6D70617469626C65004E4F
:101E40006F2053442043617264002E62696E002F3C
:101E50004D4F44454C53004E6F204D6F64656C737D
:101E6000206F6E205344008040201008040201506F
:101E70007265737320616E79206B657920746F20B1
:101E8000736B6970005357495443480000010203C3
:101E90000002010303010200030201005B085D0070
:101EA000476C6F62616C205661726961626C65009B
:101EB00053746174697374696373005265736574F4
:101EC00020466C69676874005265736574205465B8
:101ED0006C656D6574727900526573657420546920
:101EE0006D6572320052657365742054696D657258
:101EF00031001F665345531E544D311F66544D32F9
:101F00001E5448521F6654482500535441545300F0
:101F10005741524E494E47001B20FC040404040460
:101F20000484C48404E4F4E40484C4C40404040401
:101F300004040404FCFF000000FCFE00FFFFFF801F
:101F4000FFFFFF80FFFFFF0000008080800000FF98
:101F5000FF000000FFFFFFFFFFFFFFFFFFFFFFFF8E
:101F6000FFFFF8FCFF3F0F030000FF3F2020202170
:101F700027272F2F2F2B272F2F2F2F2F2F272320B0
:101F800020202020203F5B4D454E555D20746F2062
:101F9000726573657400467265652052616D1F54E9
:101FA00062004672656520537461636B1F54620062
:101FB000546D6978206D61781F546D7300546D7293
:101FC00031204A69747465721F54757300546D72C0
:101FD000314C6174206D696E1F54757300546D72BD
:101FE000314C6174206D61781F5475730044454213
:101FF0005547004756004348005452004D4F444552
:102000004C00464D00435600454550524F4D206F01
:10201000766572666C6F77000053637265656E015A
:102020000001464153204F6673000143757272658B
:102030006E740001566F6C746167650001426C61DB
:10204000646573000150726F746F00557372446160
:102050007461005253534900014F66667365740002
:102060000152616E67650041046368616E6E656C64
:102070000054454C454D455452590000FF010002A3
:1020800002FF01000202FF0101FF0000000000004A
:102090000202020200020202024D4F44454C534527
:1020A0004C006672656500526573746F7265204DF1
:1020B0006F64656C00437265617465204D6F646583
:1020C0006C0044656C657465204D6F64656C004DF3
:1020D0006F7665204D6F64656C00436F7079204D9D
:1020E0006F64656C004261636B7570204D6F646551
:1020F0006C0053656C656374204D6F64656C004DB6
:102100006F76696E67206D6F64656C2E2E2E0043AE
:102110006F7079696E67206D6F64656C2E2E2E006E
:1021200044454C455445204D4F44454C006D73008B
:1021300050504D206672616D650043747220426597
:102140006570003C5D00532D5761726E696E6700CB
:10215000542D5761726E696E6700542D5472696D0B
:1021600000542D536F7572636500542D526576656A
:10217000727365005472696D2053746570005B5210
:10218000657365745D00452E5472696D7300452E4C
:102190004C696D6974730001506572736973742EB4
:1021A0000054696D65720001436F756E74646F77DA
:1021B0006E00014D696E75746500534554555000AD
:1021C000000002000000020000000001000000000A
:1021D00000070801024C4F474943414C20535749DF
:1021E0005443484553000003032D3D312B3D31003E
:1021F0005350454349414C2046554E4354494F4E58
:10220000530000045F2D2E2C000011241FBECFEFC1
:10221000D1E2DEBFCDBF00E00CBF15E0A0E0B2E030
:10222000EAE3FBEA01E00BBF02C007900D92A83180
:10223000B107D9F727E1A8E1B5E001C01D92A935A2
:10224000B207E1F70E94F3C10C949BD50C940000F7
:1022500020911B0E96E0482F50E08FE02223C9F01A
:10226000FA01829FE00DF11D1124EE0FFF1FE45BC8
:10227000F94E60817181693E33E0730764F037E1A4
:10228000360F321710F038E1360F915029F0232F16
:10229000E5CF90E001C0922F892F089590917909A0
:1022A0009F5F9F71209178099217E1F3E92FF0E089
:1022B000E459F84F80839093790908952F923F92C3
:1022C0004F925F926F927F928F929F92AF92BF9246
:1022D000CF92DF92EF92FF920F931F93CF93DF93F2
:1022E000CDB7DEB728970FB6F894DEBF0FBECDBFCF
:1022F0002B013C0129833A834B835C831801FE82C6
:10230000ED82D886CF828B019C0142E035952795DE
:10231000179507954A95D1F705521E4FAB01BC01A1
:10232000437055276627772781E090E0452B462BA1
:10233000472B11F080E090E0081B190B6501D59444
:10234000C794D594C79425E2C21A2EEFD20A21E091
:1023500030E0C50183709927892B11F020E030E02F
:10236000C21AD30A29E130E0C801B9010E9444D35E
:10237000991F9927991FFB01E91BF109C601B901B2
:102380000E9444D3991F9927991F7B01E91AF108EC
:10239000C501BB0CAA0BBB0BA3019201281B390B77
:1023A0004A0B5B0BADE6B1E00E9436D529813A813C
:1023B0004B815C81260F371F481F591F092C000CC9
:1023C000AA08BB08BA01A901481959096A097B0979
:1023D0000C191D0997012E1B3F0B020F131FF595BA
:1023E000E795F595E795F594E794F594E794CF0193
:1023F0008E199F09F801E80FF91F8F01FF0F220BBB
:10240000330BDB01CA01800F911FA21FB31F9C0178
:10241000AD01A8E1B0E00E9436D58101330C220B5A
:10242000330BAB01BC01400F511F621F731F8E8D18
:102430009F8D092E000CAA0BBB0B9A01AB01281B28
:10244000390B4A0B5B0BACE3B0E00E9436D5AD8193
:10245000BE818D01BB0F220B330BAB01BC01400FC2
:10246000511F621F731F88A199A1092E000CAA0B8E
:10247000BB0B9A01AB01281B390B4A0B5B0BACE37E
:10248000B0E00E9436D54F8158858A01550F220B46
:10249000330BDC01CB01800F911FA21FB31F0AA1D8
:1024A0001BA1012E000C220B330BBC01CD01601BC4
:1024B000710B820B930B28960FB6F894DEBF0FBEFC
:1024C000CDBFDF91CF911F910F91FF90EF90DF90E3
:1024D000CF90BF90AF909F908F907F906F905F90C4
:1024E0004F903F902F9008951F93CF93DF93162F17
:1024F000C82FD0E0FE01E95CF24F9081960F9083E7
:10250000A7DE482F50E0FE012FE0829FE00DF11D75
:102510001124EE0FFF1FE45BF94E808191812AE0C8
:102520001202800D911D112488312CEF92073CF08E
:10253000883E23E092072CF088EE93E002C088E109
:102540009CEF6FE0649F9001659F300D1124C20FD6
:10255000D31FCC0FDD1FC45BD94E9983888382E0E3
:10256000DF91CF911F910C9430258091880886FDD2
:102570000CC00E9421248436910538F447E060ECB9
:1025800077E08DE193E00C94D83C089580918D081C
:102590002AEF829FC0011124880F991F9093900702
:1025A00080938F070895CF93DF93E1EAF6E1C0E0CF
:1025B00024E02E0FA491B0E0AA0FBB1FA35BB64F7F
:1025C0008D919C9136E0969587953A95E1F7C80FE5
:1025D00031962E13EFCFD2E18D2F0E945068C90F94
:1025E000DF5FD931C9F780919B079C2F981B892FFA
:1025F000082E000C990B97FF03C0919581959109C6
:10260000029724F0C0939B0781E001C080E0DF9136
:10261000CF9108958091471390918E07981749F1B3
:1026200080938E07C0DF882341F010929A071092A2
:1026300099078091760881FDA9DF80917608843022
:1026400061F080918F0790919007892B31F48091F0
:10265000E90786FB882780F901C081E090918D070A
:10266000992311F091E08927882311F0429A089567
:102670004298089590E0FC013297EA32F10578F52E
:102680008827EE58FF4F8F4F0C9413D528E0629F98
:10269000C0011124845F9140089522E3629FC0012C
:1026A00011240895862F90E04E970895862F90E08C
:1026B000880F991F089524E1F1CF28E0EFCF25E09E
:1026C000EDCF24E6EBCF862F90E0BC016D5771096A
:1026D0002AE0269FC001279F900D11240895862F80
:1026E00090E008958A3059F020F48450823028F424
:1026F00006C0893111F484EB08958FEF089584E6C4
:102700000895982F86E070E03FE09923C9F0FB011F
:10271000399FE00DF11D1124EE0FFF1FE05BF94E14
:1027200040815181413851056CF02FE7240F291762
:1027300010F020E8240F815011F0922FE6CF089579
:1027400080E00895892F0895FF920F931F93CF93F0
:10275000DF93F82E842F63389FEF79072CF06D37C5
:1027600071052CF4EB0105C0C3E8DFEF02C0CDE733
:10277000D0E06F2DC6DF0F2D10E0F8019FE0890239
:10278000E00DF11D1124EE0FFF1FE05BF94E80817B
:1027900091818C179D07A9F0D183C08382E00E94AC
:1027A000302587E0809FF001819FF00D1124E650D5
:1027B000F94E808180FF05C0F092F90D84E6809388
:1027C0001C0EDF91CF911F910F91FF900895EF9212
:1027D000FF920F931F93CF93DF937B018A014817DA
:1027E00059071CF0861797074CF5013811051CF4A2
:1027F000C0E8C80F01C0C82FC7FF03C0C095DFEFF6
:1028000001C0D1E06C2F822F7CDF2FE0829FC001BE
:102810001124FC01EC0FF11DC7FDFA95EE0FFF1F0F
:10282000E05BF94E208131814D2F4203C001439F6F
:10283000900D11248E159F050CF4C7010817190778
:102840000CF4C801DF91CF911F910F91FF90EF9091
:102850000895CF93C82FFCDC2FE0829FC001112484
:10286000FC01EC0FF11DEE0FFF1FE45BF94E8081C0
:102870009181CF910895982F86E070E03FE09923F1
:10288000D1F0FB01399FE00DF11D1124EE0FFF1F68
:10289000E45CF94E40815181453F21E052076CF0E4
:1028A0002BE0240F291710F02CE0240F815011F099
:1028B000922FE5CF089580E00895892F0895CF9352
:1028C000C62FD9DF2FE0829FC0011124FC01EC0F3D
:1028D000F11DEE0FFF1FE45CF94E80819181CF91D5
:1028E00008950F931F93CF9302E616E1C1E0F8011C
:1028F0008081882331F00E94688E882311F08C2F0C
:1029000006C0CF5F025E1F4FC63089F780E0CF91CF
:102910001F910F910895282FE0918E08F0E0E8555F
:10292000F84FE491F0E084E090E0821B9109880F79
:10293000991F9F0102C0359527958A95E2F7C90135
:1029400083708F5F0895EF92FF920F931F93CF9341
:10295000DF9382E00E94302507E613E1C0E0D0E07B
:102960008AE0E82E94E6F92EEC9EF001ED9EF00D43
:102970001124EB59FC4E9C2F9F708081807F892B06
:102980008083F801F0828C2F8F5FC5DFF8013197CB
:1029900080832196065F1F4FC430D10529F7DF9150
:1029A000CF911F910F91FF90EF900895909188081B
:1029B00095FF05C0823018F024E120938D079871AF
:1029C000983049F0911103C0811105C008959831E4
:1029D000F1F48330E0F0209193082295220F207EBD
:1029E00025952595259525952595022E000C330BCB
:1029F0002E5F3F4F95E0929FF001939FF00D1124C1
:102A0000E80FF11DE157F84FE491E093770908953D
:102A1000EF92FF920F931F93CF93DF938091471311
:102A20009091481301969093481380934713809197
:102A30008F0790919007009729F001979093900746
:102A400080938F0780918D07882319F081508093A0
:102A50008D078091280C882319F081508093280CD1
:102A60008091340D882319F081508093340D80912A
:102A70009B0C882319F0815080939B0C8091360D1C
:102A80008F5F8093360D8436A9F48091390D909133
:102A90003A0DA0913B0DB0913C0D0196A11DB11DC9
:102AA0008093390D90933A0DA0933B0DB0933C0D5C
:102AB0001092360D609103016170C1E06C2786ECC5
:102AC00097E00E94282760910301669561706C274A
:102AD00089EC97E00E942827809109018095C82FF2
:102AE000C073C695C695C6958F70880F880F880FDE
:102AF000C82B2CE9E22E27E0F22E01E010E00C2E8C
:102B0000000CDD0BBE01002E02C0759567950A947E
:102B1000E2F76170C7010E9428270F5F1F4F43E053
:102B2000E40EF11C0730110569F7FFB0F09407E6D9
:102B30001EE1C0E0D0E0F80184918F2161E009F44A
:102B400060E0CE018255984F0E9428270F5F1F4FEB
:102B50002396C831D10579F780919108882339F1FE
:102B600090E0FC01EA5CF24F308120918C07F32F5A
:102B7000F21B2F2F41F030938C07221F2227221F98
:102B8000225220934C0920914C09422F4F7150E062
:102B90000D964817590759F4822F807E803211F420
:102BA0008FEC03C0803819F48EEC80934C09E091CF
:102BB00006094E2F42954F7050E060E080E090E0B3
:102BC000262F30E02417350744F4E901CA55D74FC2
:102BD0002EA1820F911D6F5FF3CF65E070E00E9420
:102BE00057D3EB017093210960932009809142092A
:102BF000909143096817790724F47093430960930F
:102C0000420910919808112309F47CC0E3FD69C0C2
:102C1000809123178295869586958370823080F403
:102C200045E0849FF0011124EA55F74F608170E080
:102C30000E941E2F6AE070E00E9444D3EB0106C0A0
:102C4000823021F4C0912A09D0912B0920910809E2
:102C5000309109098091401787708150823078F453
:102C600095E0899FF0011124EA55F74F608170E0EB
:102C70000E941E2F6AE070E00E9444D39B01A901CC
:102C800056954795D695C7954C9FC0014D9F900D81
:102C90005C9F900D112469E170E00E9457D37093FE
:102CA0002709609326098091240990912509B9018B
:102CB000680F791F70932509609324096031EEE055
:102CC0007E0778F0809122099091230901969093D4
:102CD00023098093220960517E40709325096093F7
:102CE0002409809126099091270920914809309163
:102CF00049092817390708F065C09093490980935E
:102D0000480960C060E080EB98E00E946F2F60E0AF
:102D100084EB98E00E946F2F8091910C80FF08C097
:102D20008091471390914813811102C081E03EDEEB
:102D30008091910C81FF0DC08091471390914813B1
:102D4000803409F443C0809147139091481388342C
:102D5000E9F18091910C82FF12C08091471390910C
:102D600048138038B1F18091471390914813883807
:102D700081F18091471390914813803951F18091EE
:102D8000E309882329F08091E30981508093E309C6
:102D90008091E209882329F08091E2098150809393
:102DA000E20980910702897F809307028091520D8A
:102DB00081608093520DDF91CF911F910F91FF9011
:102DC000EF900895115010939808A6CF81E0EEDDA2
:102DD000C0CF81E0EBDDD3CF1F920F920FB60F92E1
:102DE00011240BB60F928F939F93EF93FF939091C3
:102DF0007909809178099817D9F0E0917809EF5F07
:102E0000EF71E0937809F0E0E459F84F80818F3E4C
:102E100059F48091D1008F7D8093D10080E190E0C2
:102E200090937B0980937A0980818093D60005C0B6
:102E30008091D1008F7D8093D100FF91EF919F9180
:102E40008F910F900BBE0F900FBE0F901F90189593
:102E50001F93CF93DF93209188082871203189F048
:102E6000EC011FB7F89421968EE718DA84E016DAA1
:102E700083E014DA8D2F12DA8C2F10DA8FEE0EDA4F
:102E80001FBFDF91CF911F910895BC0189E39DE0A1
:102E90000C94C6A60F931F938B019C0103701127FE
:102EA00022273327012B022B032BB1F424E630E039
:102EB00040E050E00E94F7D4672B682B692B71F437
:102EC000BA01A901437055276627772781E0413071
:102ED00051056105710519F080E001C081E090E0C5
:102EE0001F910F9108952F923F924F925F926F9290
:102EF0007F928F929F92AF92BF92CF92DF92EF928A
:102F0000FF920F931F93CF93DF93CDB7DEB7AD97AB
:102F10000FB6F894DEBF0FBECDBF1C01DC018C9153
:102F2000E82F880FFF0BFB8FEA8FF1018181082FBB
:102F3000880F110B1D8F0C8F8281282F880F330B68
:102F40003F8F2E8F73808481082E000C990B658033
:102F50006CE070E00E9444D32C01052D001F002777
:102F6000001F10E0862C062C000C9908AA08BB084C
:102F7000CB01801B910B092E000CAA0BBB0BA501EA
:102F80009401280F391F4A1F5B1F28A339A34AA3A6
:102F90005BA3CA01B9017EDF2CE0209FF001219FD5
:102FA000F00D1124E40DF51D4DE0DC014A9FC00138
:102FB0004B9F900D1124E80FF91FEE0FFF1FE05AF1
:102FC000FD4F808191810197092E000CAA0BBB0B4C
:102FD000472D072C000C550B660B770B8C019D01C0
:102FE000040F151F261F371F0EA31FA328A739A7DD
:102FF000209168073091690740916A0750916B07EB
:103000002A8B3B8B4C8B5D8BC901919581959109E6
:103010009F938F931F921F921F921F92812C912C2E
:1030200046E4A42EB12CCA8CDB8CEC8CFD8C0E8D6E
:103030001F8D2EA13FA148A559A568A179A18AA1FC
:103040009BA13CD90F900F900F900F900F900F9075
:103050006E877F87888B998B262D660C330B359571
:10306000279523523109872D770C990B892F990FBA
:10307000990B859585953901680E791EC801990FC0
:10308000880B990F982F881F680E791EC701990F1A
:10309000880B982F680E791EC601990F880B982F00
:1030A000680E791E8E859F85A889B9891AE1B59524
:1030B000A795979587951A95D1F78619970997FF40
:1030C00003C09195819591094697CCF14E855F8516
:1030D000688979894095509560957095DB01CA01A2
:1030E0002AE1B595A795979587952A95D1F78619E1
:1030F000970997FF03C091958195910946972CF008
:103100006FEF7FEF8FEF9FEFFCC0DB01CA010E85F1
:103110001F8528893989801B910BA20BB30B0A8963
:103120001B892C893D89080F191F2A1F3B1F0A8BF9
:103130001B8B2C8B3D8B4E875F87688B798B2E8505
:103140003F85488959892A873B874C875D872E8B25
:103150003F8B488F598F2AA73BA74CA75DA7A6E0B6
:10316000B0E0BDA3ACA3BE016F5F7F4FCE010A9656
:103170000E94C6A64A845B846C847D84888499847A
:10318000AE800A2C000CBB088981282F082E000C69
:10319000330B3F938F938A81282F082E000C330B1B
:1031A0003F938F938B81282F082E000C330B3F9376
:1031B0008F93CA8CDB8CEC8CFD8C0E8D1F8D2EA119
:1031C0003FA148A559A568A179A18AA19BA176D85C
:1031D0000F900F900F900F900F900F90530142019E
:1031E000860E971EA81EB91E21E084149504A6041D
:1031F000B7040CF420E0AB01BC01442777FD4395F4
:1032000055276627772724131DC077FE0DC092E04F
:1032100049165104610490E87906BCF4D301C20157
:103220000196A11DB11D1AC0AEEF4A16AFEF5A06A6
:103230006A06AFE77A0674F0D301C2010197A109CB
:10324000B1090CC0D501C40109C080E090E0A0E044
:10325000B0E804C08FEF9FEFAFEFBFE74816590605
:103260006A067B0661F10AA51BA52CA53DA54016A3
:1032700051066206730649F42E893F89488D598D9F
:103280004216530664067506D1F44CA15DA1415067
:1032900051095DA34CA3452B09F432CF8A879B8744
:1032A000AC87BD878E899F89A88DB98D8AA79BA77A
:1032B000ACA7BDA74E8A5F8A688E798E54CF8A8963
:1032C0009B89AC89BD89840D951DA61DB71D0E85F2
:1032D0001F8528893989801B910BA20BB30B809322
:1032E000680790936907A0936A07B0936B0789E01A
:1032F000FE013196D10101900D928A95E1F7B2015C
:10330000C301AD960FB6F894DEBF0FBECDBFDF91FF
:10331000CF911F910F91FF90EF90DF90CF90BF90D2
:10332000AF909F908F907F906F905F904F903F9065
:103330002F9008950E94983D892B21F01092030B45
:103340001092020B109219051092180508950F9310
:103350001F93CF93DF93CDB7DEB760970FB6F89486
:10336000DEBF0FBECDBF8091640790916507A0912D
:103370006607B0916707892B8A2B8B2BF1F580911B
:10338000070280FD3AC040E050E0BA0189E00E94A7
:103390004742811130C060E170E0CE0101960E9489
:1033A000DF41892B41F1298130E086E03595279571
:1033B0008A95E1F78A8599852130310589F5482F6D
:1033C00050E04F5F5F4F292F30E0322F2227CA0194
:1033D000820F931FA0E0B0E0EAE0880F991FAA1FB8
:1033E000BB1FEA95D1F78093640790936507A0937C
:1033F0006607B09367070E94354260916407709139
:103400006507809166079091670760960FB6F894FC
:10341000DEBF0FBECDBFDF91CF911F910F910895F9
:10342000288544E0249F90011124A9014F5F5F4F3C
:10343000292F30E096E0359527959A95E1F7240FEE
:10344000351F4F81437050E0542F4427550F550FBF
:10345000240F351F890120E030E09E81692F6F70B5
:103460009B85991F9927991F960F8370880F890F45
:103470008750B901A80104C0440F551F661F771F6C
:103480008A95D2F7DB01CA01AECF1F920F920FB619
:103490000F9211240BB60F922F933F934F935F938C
:1034A0006F937F938F939F93AF93BF93EF93FF930C
:1034B00089B18C7019F461E081E016D8FF91EF9129
:1034C000BF91AF919F918F917F916F915F914F913C
:1034D0003F912F910F900BBE0F900FBE0F901F903A
:1034E00018951F920F920FB60F9211240BB60F92E0
:1034F0002F933F934F935F936F937F938F939F93FC
:10350000AF93BF93EF93FF9389B18C7021F46FEF6A
:1035100081E00E947412FF91EF91BF91AF919F9152
:103520008F917F916F915F914F913F912F910F906C
:103530000BBE0F900FBE0F901F9018951F920F9209
:103540000FB60F9211240BB60F922F933F934F9308
:103550005F936F937F938F939F93AF93BF93EF93FB
:10356000FF938CB1807319F461E00E947412FF9193
:10357000EF91BF91AF919F918F917F916F915F91EB
:103580004F913F912F910F900BBE0F900FBE0F9058
:103590001F9018951F920F920FB60F9211240BB621
:1035A0000F922F933F934F935F936F937F938F93DC
:1035B0009F93AF93BF93EF93FF938CB1807319F4F4
:1035C0006FEF0E947412FF91EF91BF91AF919F91A5
:1035D0008F917F916F915F914F913F912F910F90BC
:1035E0000BBE0F900FBE0F901F901895FC018031FD
:1035F00091056CF4EE0FFF1F8E0F9F1FFC01E45628
:10360000F84F81E09081911136C080E00895709765
:10361000E930F10570F58827E456FF4F8F4F0C9481
:1036200013D58091090186FB882780F918C089B1DC
:103630001BC082B301C086B1809581701BC0309BD6
:1036400018C086B18695817015C086B101C082B35D
:103650008695817004C082B382FB882780F991E04F
:10366000892708C0809109018095881F8827881FB5
:1036700001C080E0817008958091090190E08095FB
:1036800090958F739927892B59F48091030180FFBE
:1036900007C0809103018695817091E08927089584
:1036A00081E0089590910001892F807295FD06C0F8
:1036B0009091000196FD03C083E0089580E0089595
:1036C0000F931F93CF93DF93C091F1168FEF8C0F61
:1036D000833010F4CD5F01C0C2E08091611383FD9F
:1036E0002CC00E94292B82E00E94F565D0E0CC0F0F
:1036F000DD1FC95BD84E8881998181319C4FECF0E8
:1037000021E04FE65EE16FEC77E081EE97E00E940A
:103710001B9E0E94292B82E00E94F5650881198179
:10372000C1DF833051F0A8DF811107C001311C4F88
:1037300024F00E940A13A895ECCFDF91CF911F913E
:103740000F910895F89480914713909148137894BD
:1037500008952F923F924F925F926F927F928F9235
:103760009F92AF92BF92CF92DF92EF92FF920F9310
:103770001F93CF93DF93CDB7DEB7CA56D1090FB6EB
:10378000F894DEBF0FBECDBF6C968FAF6C97CE01A5
:1037900001962E969FAF8EAF2E978BE190E06096AC
:1037A0009FAF8EAF609780919607882309F4F1C090
:1037B0001092960788E298E00E94789EBBDD6296A0
:1037C0001FAE1EAE6297CE01805B9F4F0E940380AA
:1037D0006E969FAF8EAF6E9797FDD5C0FC01EE0F32
:1037E000FF1FE25CF24FE080F180E114F10409F484
:1037F000CAC0D7011C926D96BFAD6D97A396BFAF9F
:10380000A3978B2F0E94EA44857009F0BCC0A39651
:10381000EFADA397E11116C08091070280FD15C09E
:1038200040E050E0BA0189E00E9447428111D5C2D0
:1038300060E170E0CE014C960E94DF41892B09F0D7
:10384000D2C2CBC284E090E002C083E090E0892B3A
:1038500009F099C020E8421651046104710408F48B
:1038600092C017C3C801880F991FFC01E75EFD4F86
:1038700020803180211492E0390608F424C3232CDF
:1038800033242694910140E050E066962CAF3DAF82
:103890004EAF5FAF6697C301B2010E94D5D4263FF9
:1038A0008FE038074105510508F01DC3A3E0B0E0E3
:1038B0000E9436D5DC01CB010196A11DB11DB69544
:1038C000A795979587950396A11DB11D21E06B964D
:1038D0002FAF6B9781509E4FAF4FBF4F9C01AD01F3
:1038E00069E056954795379527956A95D1F76A9679
:1038F0002CAF3DAF4EAF5FAF6A9780E290E0A0E0A3
:10390000B0E0A7968CAF9DAFAEAFBFAFA79721E059
:1039100030E040E050E0A2962CAF3DAF4EAF5FAF3D
:10392000A2976A968CAD9DADAEADBFAD6A97A296DB
:103930002CAD3DAD4EAD5FADA297820F931FA41F7E
:10394000B51FA7962CAD3DAD4EAD5FADA797280F27
:10395000391F4A1F5B1FAB962CAF3DAF4EAF5FAF19
:10396000AB97DA01C90166962CAD3DAD4EAD5FADAA
:103970006697820F931FA41FB51F481659066A0643
:103980007B0608F0E8C28AE198E09093C30E80932A
:10399000C20E0091E50A1091E60A27E04CE058E0DB
:1039A00061E06C968FAD6C970E94D4A084E098E0A3
:1039B0000E949A9D80919507181614F4109295070D
:1039C0006C962FAD6C97203809F454C030F4203633
:1039D000C1F0243609F08BC014C06C963FAD6C97D3
:1039E0003F3B21F03F3C09F082C00BC084E992E0EC
:1039F0000E9432858FEF9FEF9093E40A8093E30A51
:103A000076C08091930790919407009709F46FC056
:103A100001972091910730919207AC01421B530B03
:103A20009A014CE1429FC001439F900D1124855E95
:103A3000954FFC01238D211118C00E9432851092F0
:103A400092071092910781E090E090939407809301
:103A500093078FEF9FEF9093E40A8093E30A6C96AD
:103A60008FAD6C970E94122742C06C96FFAD6C9789
:103A7000FF3CE9F56C968FAD6C970E941227209160
:103A800093073091940780912B0E90912C0E232B4D
:103A9000C1F4FC01EE0FFF1FE15EF14F28EF37E0AC
:103AA000318320839C012E5F3F4F30932C0E209357
:103AB0002B0E880F991FFC01EF5DF14F81EF97E00E
:103AC0000EC09C012F5F3F4F30932C0E20932B0E86
:103AD000880F991FFC01E15EF14F8AEE97E0918318
:103AE000808385E197E590931E0E80931D0E0BE178
:103AF0001AE02091E30A3091E40AE0909107F090F7
:103B000092072E153F0509F401C1E114F10431F4C7
:103B10001092E40A1092E30A84EC30C08091E50A26
:103B20009091E60A0797E816F90651F4F092E40A34
:103B3000E092E30A84ECF80111928A95E9F722C039
:103B400048EA50E02E153F0590F467E37AE08BE1F8
:103B50009AE00E9446D54AE150E06FEF70E083ECB6
:103B60009AE00E9457D581E08093DE0A0BC06BE19A
:103B70007AE087E39AE00E9446D58CE1D8011D9255
:103B80008A95E9F71092E60A1092E50A64EF74E06C
:103B9000CE014C960E94C484892B09F0B7C09BE1EA
:103BA000692E9AE0792E332433942CE1422E36E0AC
:103BB000832E912CBE016A5C7F4FCE014C960E94F1
:103BC000C47D892B09F0A2C08FAD882309F49EC063
:103BD0008E3229F421968FAD2197882359F32E96A2
:103BE0000EAD1FAD2E97F8018081811103C08E01AB
:103BF000015C1F4FF80101900020E9F73197E01BAD
:103C0000F10B7B97B8F68091E50A9091E60A019650
:103C10009093E60A8093E50A5EAC54FA552450F876
:103C20005324E114F104A9F48BE1A82E8AE0B82E04
:103C3000C12CD12C2C2CD5018C91882309F4C3C420
:103C4000A501B801852D0E94515E882309F4F7C4AF
:103C5000BAC48091E30A9091E40A8E159F05A1F4FD
:103C6000A3ECCA2EAAE0DA2EB6E0BB2ED6018C91C8
:103C7000882309F4CBC4A601B801852D0E946A5E91
:103C8000882309F4E8C4C2C48E159F0500F547EAED
:103C90005AE0B801852D0E946A5E882309F48ACF14
:103CA00043EC5AE0B801852D0E94515E882309F447
:103CB00081CFE3ECFAE0DF01242D1D922A95E9F78C
:103CC000B801CF010E947CD55092DE0A73CF47E342
:103CD0005AE0B801852D0E94515E882309F46ACF0D
:103CE0004BE15AE0B801852D0E946A5E882309F4F1
:103CF00061CFD301E42D1D92EA95E9F7B8018BE17C
:103D00009AE00E947CD55092360A54CF8090910759
:103D1000909092079092E40A8092E30AEBE1CE2E13
:103D2000EAE0DE2EF6E3EF2EFAE0FF2E19E0A12CFA
:103D3000B12C109298078091930790919407019766
:103D4000881999098A159B0511F000E201C002E269
:103D5000D6018C918823D9F0F7018081811105C0AB
:103D6000202F4BE5612F0E949E28202FA601612F56
:103D7000809198070E945AA5D7018C91811107C0A4
:103D8000202F4DE5612F809198070E949E28BFEF5C
:103D9000AB1ABB0A185FECE1CE0ED11CFCE1EF0EB2
:103DA000F11C113431F6C659DF4F0FB6F894DEBF5F
:103DB0000FBECDBFDF91CF911F910F91FF90EF907C
:103DC000DF90CF90BF90AF909F908F907F906F903B
:103DD0005F904F903F902F90089501E010E00E9477
:103DE0003542C80134CD2C8D30E076E035952795ED
:103DF0007A95E1F78DA19CA121303105B9F4482FC6
:103E000050E04F5F5F4F292F30E0322F2227CA0149
:103E1000820F931FA0E0B0E02C013D018AE0440C2A
:103E2000551C661C771C8A95D1F731C02BA1F4E094
:103E30002F9F90011124A9014F5F5F4F292F30E080
:103E4000B6E035952795BA95E1F7240F351F4AA1BD
:103E5000437050E0542F4427550F550F420F531F06
:103E600060E070E099A1292F2F709EA1991F9927DA
:103E7000991F920F8370880F890F87502A013B0189
:103E800004C0440C551C661C771C8A95D2F700E0D0
:103E9000A5CFC301B20120ED37E040E050E00E9421
:103EA000D5D4EFE2F2E000E010E061917191CB0136
:103EB000A0E0B0E0281739074A075B0708F0D2CC2A
:103EC0000F5F1F4FF2CF2114310449F0A1E82A16E9
:103ED000310408F4D7CC70E8272E312CD3CC22241F
:103EE0002394312CCFCC263F9FEF39074105510554
:103EF00008F4B9C3DA01C90142E0880F991FAA1F6B
:103F0000BB1F4A95D1F7895F9D4FAF4FBF4F9C01B3
:103F1000AD0169E056954795379527956A95D1F794
:103F20006A962CAF3DAF4EAF5FAF6A9733E06B96AA
:103F30003FAF6B97A7961CAE1DAE1EAE1FAEA797E8
:103F400080E290E0A0E0B0E0A2968CAF9DAFAEAF73
:103F5000BFAFA297E6CCA3963FADA397311167C040
:103F60008091070280FD66C08091E40940E050E046
:103F7000BA0182FF26C08DE80E944742811104C326
:103F80000E94717D60E170E0CE014C960E94DF419D
:103F9000892B09F4F9C210E30E94717D1150E1F7F9
:103FA0008EA182958F7030E1832E912CA12CB12CA3
:103FB00004C0880C991CAA1CBB1C8A95D2F700E08F
:103FC00032C089E00E9447428111DEC260E170E0A8
:103FD000CE014C960E94DF41892B09F4D5C2909105
:103FE000E4098FA191FFD2C2881F8827881F882EDD
:103FF000912C4FEF841A940A8EA18F73880E911C16
:10400000880E911C89A590E026E0959587952A95C4
:10401000E1F7019702C0880C991C8A95E2F7A12C60
:10402000B12C00E010E00E943542C80105C084E0D8
:1040300090E002C083E090E0892B51F4D501C401E7
:104040000197A109B10981159048A105B10520F09A
:10405000812C912C54018394AB968CAD9DADAEAD6B
:10406000BFADAB970197A109B109880D991DAA1D94
:10407000BB1DB094A09490948094811C911CA11CB1
:10408000B11C88229922AA22BB22AB962CAD3DAD51
:104090004EAD5FADAB97821A930AA40AB50A6B9630
:1040A0003FAD6B97333089F4A2968CAD9DADAEAD2C
:1040B000BFADA297880D991DAA1DBB1DA2968CAFFE
:1040C0009DAFAEAFBFAFA29710C06A962CAD3DAD0D
:1040D0004EAD5FAD6A97280D391D4A1D5B1D6A966E
:1040E0002CAF3DAF4EAF5FAF6A97D301C201A2962E
:1040F0002CAD3DAD4EAD5FADA297821B930BA40BD3
:10410000B50B6A962CAD3DAD4EAD5FAD6A97821B87
:10411000930BA40BB50BBC01CD01A7962CAD3DAD07
:104120004EAD5FADA797621B730B840B950B669624
:104130002CAD3DAD4EAD5FAD66970E94D5D4490123
:104140005A016B963FAD6B97323049F446EF8416B7
:104150004FE09406A104B10408F415CC0DC06B9691
:104160005FAD6B97533041F486EF88168FEF98065A
:10417000A104B10408F407CC670192E3C90ED11C75
:1041800040E052E060E070E0C6010E949E964BE085
:1041900050E060EC74E0C6010E942997F70115AE6B
:1041A00082E086AF27AEE05CFF4F6F962FAD6F9732
:1041B00020833196A0963FADA097308381E0319661
:1041C00080836B964FAD6B97433011F082E001C056
:1041D00080E0F701ED5BFF4F108231968083852DE3
:1041E00099274114510451E06506710428F4319671
:1041F0004082319680830AC0F701EE5AFF4F408219
:1042000031968083319660823196708280EFF7011B
:10421000E95BFF4F80838FE3339680833196108272
:104220008FEF3196808331961082319610823196CD
:10423000108231961082319610820E943597272F76
:1042400033272C016624772466964CAE5DAE6EAEA5
:104250007FAE6697492E5524662477246B964FAD22
:104260006B97F701433009F041C0EB58FF4F608373
:1042700031962083319663965FAD63975083319674
:104280004082B29767968FAD679780833196689624
:104290009FAD6897908331966996AFAD6997A0837B
:1042A00031966A96BFAD6A97B08382E03596808377
:1042B00031961082319610823196108281E03196CB
:1042C00080833196108286E0319680833196108209
:1042D00080E83D96808389E23296808343E150E016
:1042E0006CEC74E0C70187589F4F23C0E75AFF4F1B
:1042F000608331962083319663962FAD6397208338
:1043000031964082749767963FAD679730833196B8
:1043100068964FAD6897408380E83D96808389E238
:104320003296808343E150E060EE74E0C701835A27
:104330009F4F0E94299785E5F701E05DFD4F80833F
:104340008AEA3196808301E010E020E030E0A901A4
:10435000B6016D968FAD6D970E94B242892B09F020
:1043600012CB6B965FAD6B97533051F426E030E083
:1043700040E050E0B6016D968FAD6D970E94B2425D
:1043800040E052E060E070E0C6010E949E966B96AD
:104390008FAD6B97833069F0813011F480E001C0FC
:1043A0008FEF90EFF70192AB9FEF93AB94AB85ABA0
:1043B00010C080EFF70182AB8FEF83AB84AB85AB8E
:1043C00086AB87AB80AF81AF82AF83AF84AF8FE026
:1043D00085AF01E010E0A2962CAD3DAD4EAD5FADD6
:1043E000A297B6016D968FAD6D970E94B242892B50
:1043F00009F0C9CA40E052E060E070E0C6010E94E6
:104400009E96412C512C32014394A2962CAD3DAD89
:104410004EAD5FADA297240D351D461D571D6A9602
:104420008CAD9DADAEADBFAD6A97481659066A0614
:104430007B0688F401E010E0B601A3968FADA39748
:104440000E94B242892B09F09ECAFFEF4F1A5F0A01
:104450006F0A7F0ADACF6B969FAD6B97933021F08E
:10446000A5962EAC3FACA59729013A01AFEF4A1AA9
:104470005A0A6A0A7A0A01E010E0B601A3968FADE3
:10448000A3970E94B242892B09F07DCAB1E02B1A92
:104490003108A301920141F76B96EFAD6B97E330C2
:1044A00009F048C082E5F70182AB83AB81E684ABBB
:1044B00091E495ABEA5EFD4F22E72083319620839D
:1044C000319690833196808331968FEF880D80836B
:1044D0003196C40101979083F1E08F1A9108A108E9
:1044E000B108F701E45EFD4FA0823196B0823196AB
:1044F00082E080833196108231961082319610824C
:104500003F9685E5808331968AEA808321E030E01A
:1045100040E050E0B6016D968FAD6D970E94B242BB
:1045200027E030E040E050E0B6016D968FAD6D972A
:104530000E94B242A3964FACA397411012C0809143
:10454000070280FD11C00E943842892B21F00E9491
:10455000354200E001C001E010E00E943542C80190
:1045600005C084E090E002C083E090E0892B09F070
:104570000ACA84E992E00E9432858FEF9FEF909300
:10458000E40A8093E30A05CA01E04CCD282F23708A
:1045900082958695877090E058E0259F800D911D4B
:1045A000112401962EA12C7730E03595279535956D
:1045B00027952F5F3F4F829F4001839F900C929FD2
:1045C000900C11242CCD96E02916A9F0C4018C1969
:1045D0009D09489EA001499E500D1124BFEFCB1AA2
:1045E000DB0A4C9CC0014D9C900D1124B501855EE9
:1045F000954F0E9446D5F501242D11922A95E9F791
:10460000B801C5010E947CD5F50117C0BB2059F047
:10461000BB2DECE1BE02A001112467E37AE08BE13F
:104620009AE00E9446D5D601E42D1D92EA95E9F75D
:10463000B801C6010E947CD5F601538EBBCAAFEF0C
:10464000CA1ADA0ABCE1AB0EB11CE7E0CE16D104FF
:1046500009F0F0CAAFCABA94FCE1CF1AD1082FEF23
:10466000B21204CBA7CADA01C9010296A11DB11D7D
:10467000880F991FAA1FBB1F32E06B963FAF6B9745
:1046800029C9FC01808141FF02C0682B08C042FF9C
:1046900005C0962F9095682F692301C06827608315
:1046A00008950F93CF93DF93382FD62FC22F2D303D
:1046B00069F422E3249FC001259F900D11246BE132
:1046C00070E00E9444D3AB01C4E003C0233109F47D
:1046D000C6E0202F2F7B6D2F832F0E94B2A406FDF2
:1046E0000BC0C33049F000E02C2F4BE652E16D2F98
:1046F000809197070E942BA5DF91CF910F9108958C
:10470000282FCB013AE0FB0111923A95E9F72E31BF
:10471000F8F42F5F2093350F1092370F1092360F59
:1047200030E0F901EE0FFF1F2E0F3F1FF901EB5391
:10473000F14F24812093380F1092390F1092C40E3C
:1047400010923B0F10923A0F6AE070E00C94E3A9CC
:104750000895CF93DF931F92CDB7DEB720E1829FFC
:10476000C0011124BC01605A7F4F41E050E0CE01EE
:1047700001960E94AAD489810F90DF91CF9108956C
:10478000CF92DF92EF92FF920F931F93CF93DF931D
:104790001F92CDB7DEB78C01D42EDC01EC91F0E096
:1047A000CF01880F991FE80FF91FE653F14F808161
:1047B0002181922F9F70F80121813281821B930BFE
:1047C000242F30E08217930708F4D82E7B01CD2CDC
:1047D000CC2021F1F8018381882301F164816F5F8E
:1047E000648370E0F0E18F9F600D711D1124605AA9
:1047F0007F4F41E050E0CE0101960E94AAD489810A
:10480000D7018D937D01F80184818F3028F01482C7
:1048100083819FDFF8018383CA94DACF8D2D8C19B1
:10482000F80121813281280F311D328321830F90BD
:10483000DF91CF911F910F91FF90EF90DF90CF907C
:104840000895CF93DF938091C70EC0E0D0E0882316
:1048500019F02F967EDFFBCF8091270F2091280F34
:10486000922F9F708C0F9D1FE09172080E2E000CEE
:10487000FF0B31969F01220F331FE20FF31FE65308
:10488000F14F20814181342F3F70821B930B97FFA2
:1048900002C080E090E0DF91CF91089570932208EC
:1048A000609321089093200880931F084F5F4093E6
:1048B000C00EFB9A8091C10E811101C008958091B4
:1048C000C00E181614F4A895FACF089593E0899FA6
:1048D000B00111246C5F7F4F90E09C01220F331FC9
:1048E000820F931F43E050E08753914FD7CFCF9271
:1048F000DF92EF921F93CF93DF93162FC82FD0E054
:104900009E01220F331FC20FD31FCB53D14F2C81D7
:104910003D814E81E62FF0E0BF01660F771FE60F65
:10492000F71FEB53F14FC480D580E680CC82DD8247
:10493000EE8224833583468391E09093C10EC6DFD7
:10494000812FC4DF1092C10EDF91CF911F91EF90A4
:10495000DF90CF90089541E050E062E070E087EC96
:104960009EE09CCF6093230820E1829FC001112428
:10497000BC01605A7F4F41E050E083E298E08ECF67
:10498000CF93DF93D82FC82F8C2FE3DE882311F02D
:10499000C82FFACF6091C70E8C2FE4DFD093C70EDB
:1049A000DF91CF91D8CFCF93282F30E0A901440FCA
:1049B000551F240F351FF901EB53F14FC481F90145
:1049C000E753F14F10821182128291E09093C10E51
:1049D0007DDFCC2311F08C2FD3DF1092C10ECF914D
:1049E00008951F920F920FB60F9211240BB60F92DB
:1049F0008F939F93EF93FF938091C00E815080938C
:104A0000C00E18160CF5809121089091220892BDD5
:104A100081BDE0911F08F0912008808180BDFA9A45
:104A2000F99A80912108909122080196909322088A
:104A30008093210880911F089091200801969093FF
:104A4000200880931F0801C0FB98FF91EF919F9170
:104A50008F910F900BBE0F900FBE0F901F90189567
:104A600090912408892B809324080E94A21B909384
:104A7000CD078093CC070895CF92DF92EF92FF92FB
:104A80000F931F93CF93DF93EC01162F042F97FF03
:104A900007C089E791E00E942817D195C195D109F7
:104AA000802F8073082E000C990B4097181619065A
:104AB000ACF46AE070E0CE010E9444D36B017C014B
:104AC000EB01E114F10451F040E060E0C601D4DFF5
:104AD000C7018C549E4F0E9428171DC0C83E83E01A
:104AE000D807E4F0C03D87E0D8074CF0CE0168EE6F
:104AF00073E00E9444D3CB0140E060E0BDDF8DE66F
:104B000091E00E942817CE0168EE73E00E9444D322
:104B1000EC01892B19F4CFEFDFEF1BC0C436D105B0
:104B2000C4F0C83CD1054CF0CE0164E670E00E94B0
:104B300044D3CB0193950E94281784E691E00E940C
:104B40002817CE0164E670E00E9444D3EC01892B63
:104B500011F3CE016AE070E00E9444D3019749F45A
:104B6000CA35D10544F407FF04C0CB0182599E4FDA
:104B700004C0D7FD04C0CE0193950E9428171123CD
:104B8000B9F08FEF810F8D3021F0833119F486E079
:104B900001C084E08F5F90E084589E4FDF91CF91F9
:104BA0001F910F91FF90EF90DF90CF900C942817FA
:104BB000DF91CF911F910F91FF90EF90DF90CF90F9
:104BC0000895CF93DF93EC01009739F440E860E05B
:104BD00080E090E0DF91CF914FCF97FF07C089E74A
:104BE00091E00E942817D195C195D109CE0160E1CD
:104BF0007EE00E9444D3262FEC01662349F040E872
:104C000060E0822F90E038DF8BE891E00E94281767
:104C1000CE016CE370E00E9444D39B01EC01672B52
:104C200079F040E860E0C90127DF8CE891E00E945C
:104C30002817209789F088E791E00E94281702C082
:104C4000892B51F040E860E0CE0116DF8DE891E05D
:104C5000DF91CF910C942817DF91CF91089597FDA4
:104C600002C0059601C005976AE070E00E9444D337
:104C7000CB01089549E2489F9001499F300D1124CE
:104C80003595279535952795492F441F4427441F6F
:104C900050E0841B950B66E0959587956A95E1F742
:104CA000B901681B790BCB01841B950B0895BC01DE
:104CB000660F771F492F441F4427441F50E09C0173
:104CC000241B350BC90195958795860F971F840F77
:104CD000951FF4E035952795FA95E1F7820F931F1C
:104CE000840F951F08950E943C1B882311F0A895FE
:104CF000FACF80E3ECE9F7E0DF011D928A95E9F74E
:104D000010924C090895CF938E3108F089C0C82FB6
:104D10000E949A19809105028F3F19F081E08093DB
:104D20001E0881E08C0F8093350F1092370F109280
:104D3000360F90E0FC01EE0FFF1F8E0F9F1FFC014E
:104D4000EB53F14F84818093380F1092390F1092FA
:104D5000C40E10923B0F10923A0F69EF73E089E492
:104D600093E10E94E3A98F3F910509F088F489EF50
:104D700093E0E9E4F3E1DF019C011D922150304012
:104D8000E1F70E94A31481E00E94BA32C1E001C0A1
:104D9000C0E00E944B341092E7071092E607EEEC59
:104DA000F7E080E090E88193919337E0E63EF307E7
:104DB000D1F7809105028F3F59F0C11107C00E94C1
:104DC000B5120E94601B0E94D48D8DDF10921E08C8
:104DD00085E3E9EEF7E0DF011D928A95E9F780911E
:104DE0005713869586958695837041F08091581368
:104DF00090915913909338088093370880915D13F0
:104E0000869586958695837041F080915E1390918A
:104E10005F139093400880933F0886E08093E807F3
:104E2000CF91089590919108935F8E3C11F4892F52
:104E3000FCCF8F71803158F490E0FC01EE0FFF1F22
:104E40008E0F9F1FFC01E456F84F83E6828308957E
:104E5000FC019081990F61119160908381818F5F36
:104E6000818382818823A9F0911113C0833679F060
:104E7000BF016C5977404BEA5AEA649F9001659FE5
:104E8000300D749F300D1124206220934C09118243
:104E900012828281883009F445C050F4813009F4CF
:104EA00049C090F08230F1F1843009F061C03AC01D
:104EB0008F3521F118F48031A9F10895813649F038
:104EC000823609F44FC008959F3009F051C081E641
:104ED0004DC0AF014C5957402BEA3AEA429FC001FE
:104EE000439F900D529F900D1124806680934C0932
:104EF00010929A07109299078FE538C0818180320D
:104F000069F4EC59F7404BEA5AEAE49F9001E59FB7
:104F1000300DF49F300D1124206821C0883241F5F6
:104F200080E124C09181903328F090E09595879599
:104F300082831182828190E00197218130E0822377
:104F40009323892BA9F4EC59F7404BEA5AEAE49FE2
:104F50009001E59F300DF49F300D112420642093C3
:104F60004C0908958181803418F088E08283118291
:104F70000895282F30E82303C0011124FC01E95BC8
:104F8000F04F80E09081909591938F5F8038D1F7BA
:104F90000895EF92FF920F93CF93DF93C42FD22FF8
:104FA00087FD67C047FF02C0640FC19567FF02C05D
:104FB000C60F60E02C2F0C2E000C330B260F311D7A
:104FC00067FD3A952134310514F0C0E4C61BD53590
:104FD00011F460FFDAEA262F259525952595E82E10
:104FE000F12CC70130E82303800D911D11249C0191
:104FF000295B304F7901962F9770F1F0E1E0F0E0F6
:10500000BF01092E01C0660F0A94EAF79850C90F34
:10501000C7FD03C0E62FE19507C088E08C0F01C0F3
:10502000EE0F8A95EAF7E61B6E2F6D23402FC7011E
:1050300028DB30E8E30EF11CC8304CF0402F6D2F18
:10504000C7011FDB80E8E80EF11CC850F5CF1C1625
:1050500084F461E070E001C0660FCA95EAF7615020
:105060006D23402FC701DF91CF910F91FF90EF90FB
:1050700008CBDF91CF910F91FF90EF900895DF92D1
:10508000EF92FF920F931F93CF93DF93603490F5CD
:10509000C82FD0E0FE01E40FF11DE138F10514F056
:1050A00040E8481B862F86958695869590E8899FCF
:1050B000C00DD11D1124677081E0D82E01C0DD0C18
:1050C0006A95EAF7C95BD04F1C2F140F1C1791F09B
:1050D000E22EF12C20FF09C0402F6D2DCE01D1DA38
:1050E000970135952795206803C0F594E7942E2DF8
:1050F0002196ECCFDF91CF911F910F91FF90EF9010
:10510000DF900895262F26952695269590E030E885
:10511000239F800D911D1124895B904FE3E187341B
:105120009E0758F4677021E030E0F90102C0EE0FED
:10513000FF1F6A95E2F7BF01A4CA08952F923F921C
:105140004F925F926F927F928F929F92AF92BF9297
:10515000CF92DF92EF92FF920F931F93CF93DF9343
:10516000CDB7DEB727970FB6F894DEBF0FBECDBF21
:105170008F83362F862F86958695869500E8809FAB
:1051800040011124D4011F81A10FB11DA95BB04FB3
:105190006EE87DE080E0992769837A838B839C8326
:1051A000912F915090939807119720FF09C050912B
:1051B000471356FF09C021FF15C1BB24B39405C096
:1051C00021FBBB24B0F801C0B12C22FF5CC024ED50
:1051D000240F2F3010F4E5ED0BC02FEB240F2A31F4
:1051E00010F4EFEC05C02FE9240F2A3118F4E9EC94
:1051F000E40F05C04F3511F4E4E001C0E0E00EE338
:1052000018E020E0332774E1E79FA0011124040F88
:10521000151F211D311DE12CE11008C08F8188234D
:1052200011F0B11017C09F5F119628C0EBE0EE1689
:1052300089F02BBFF801F790B901A8014F5F5F4FCC
:105240006F4F7F4F6BBFFA0147910E5F1F4F2F4F7C
:105250003F4F02C040E0F12C542F5F215F3F71F0BF
:10526000BB2011F0F0944095FD01E058FF4F63E141
:10527000E734F60718F4FD9240839F5FE3947CE0E7
:10528000E712CACFADC0E42FF0E0B09765E06E9FA3
:10529000A0016F9F500D1124052E000C660B770B9B
:1052A000C980DA80EB80FC804C0D5D1D6E1D7F1D7A
:1052B0003770A32EDB2CD19484010953104F1E8329
:1052C0000D83E32EF12CEFEFF0E04F0101C0880CCD
:1052D0003A95EAF78094782C7094912C122F1870DC
:1052E000612E822F8074898308E010E00E191F0957
:1052F0002071911008C0CF80CC2011F0B11019C0DE
:105300009F5F119668C086E01A012B01981669F01C
:10531000EFEF2E1A3E0A4E0A5E0A6BBFFA01379172
:105320003F3F21F4222309F454C030E0BB2029F090
:1053300003C01A012B0130E03095B201A1016620B3
:1053400021F0F2E09F1609F446C0C980E32FCC207B
:1053500031F0BB2011F0ED2103C0ED2901C03D2D3E
:1053600083E1A734B80788F5CD80DE80AC15BD0594
:1053700060F5F0E06F010E2C01C0CC0C0A94EAF746
:105380005C9058205C285C92AA20F9F06D0180E8BE
:10539000C80ED11C87E4C81683E1D80670F41F013B
:1053A000002E02C0359427940A94E2F7F60180811A
:1053B000F82FF7212F2AF6012082BB2031F0F1E0EF
:1053C000AF1203C0E52DE160EC9311969F5FD32EE1
:1053D00002C0B201A101939487E0C82E9C1089CF2E
:1053E0009093980727960FB6F894DEBF0FBECDBFF7
:1053F000DF91CF911F910F91FF90EF90DF90CF90B1
:10540000BF90AF909F908F907F906F905F904F90E4
:105410003F902F900895CF92DF92EF92FF920F93DB
:105420001F93CF93DF93D82F162F942FA901C92E46
:10543000D12C2BE2C216D10408F048C0F60188270F
:10544000EB55FF4F8F4F0C9413D5202F2F7B022F3E
:105450008D2F0E945BA451C09751CBEFC90FBA01A9
:105460008C2FECD446E0C49FF0011124E75EF84E87
:10547000C081C295CF70C33010F0F1DB0AC09C012F
:1054800029513C4F2F3C374010F4006302C0E7DB4A
:1054900000622C2F12C0006301C0006220E02AC00D
:1054A000006221E027C029E025C02AE023C0006374
:1054B00009C0CA01D4DB006223E0AC011BC000625A
:1054C0002DE018C023E016C023E114C08FED890F32
:1054D000843010F4975102C09F3018F4E9EFE90FBF
:1054E00001C0E1E09E51923008F4E0E0F0E0EA5CB7
:1054F000F74F2491612F8D2FD4D8DF91CF911F9139
:105500000F91FF90EF90DF90CF9008950F93922F1F
:10551000202F3FE0439FF0011124E90FF11DEE0F12
:10552000FF1FE45BF94E0190F081E02DE93E33E08E
:10553000F30744F097E19E0F941710F098E19E0F47
:1055400040E301C041E6490F0F91F8CD0F939FE072
:10555000499FF0011124E20FF11DEE0FFF1FE45CE3
:10556000F94E0190F081E02DE53F91E0F9075CF004
:105570009BE09E0F941710F09CE09E0F40E3490FB4
:10558000202F0F91DBCD42E050E10E942BA50F911F
:1055900008950F9347FD0BC0453044F4022F242F8C
:1055A00040ED53E10E942BA50F91089544500F91B7
:1055B0000C9439A5EF92FF920F931F93CF93DF9333
:1055C000182FC62F21E0260F00E04FE652E1682F8A
:1055D00080E00E9460A580919808882351F185E0C1
:1055E000F82EFC0E98EFE92EE10E85E0C89FE00151
:1055F0001124CA55D74F288130E004E04F2D6E2D7D
:105600008AE309DF4CE36E2D87E40E94B8A6298166
:1056100030E000E44F2D6E2D86E6FDDE4EE3612F77
:1056200088E40E94B8A62C8130E04F2D612F86E6D9
:10563000F2DEDF91CF911F910F91FF90EF900895CF
:1056400043984598469882B9479A4798459A439A0D
:105650000895EDE4F9E080E0982F906490937C0049
:1056600090917A00906490937A0090917A0096FDE0
:10567000FCCF209178003091790090917A0090646D
:1056800090937A0090917A0096FDFCCF409178003B
:1056900050917900240F351F219331938F5F88300B
:1056A000D9F60895E82FF0E0EB5DF84E90819595DE
:1056B0009595935D282F220F820F981B892F0895AF
:1056C000CF92DF92EF920F93CF9380919808882327
:1056D00009F46FC020E040E867E380E00E9425A362
:1056E000C091B408C43608F0C3E661E174E189E30F
:1056F0000E9413A6CC2ED12C02E020E1A60169E382
:1057000089E10E942CA3E12C0FEF27E046E269E338
:105710008AE10E94EAA280E0C5DFC81708F405E527
:10572000C601880F991F880F991F6BE070E00E94D7
:1057300044D3462FE12C25E06AE38AE10E9495A23A
:10574000C091B008C43608F0C3E645E154E169E30E
:1057500088E60E9411A6CC2ED12C02E020E1A60101
:1057600069E381E80E942CA3E12C0FEF27E046E2D9
:1057700069E381E40E94EAA2C601880F991F880F9D
:10578000991F6BE070E00E9444D3D62E80E08ADF40
:10579000C81708F405E5E12C25E04D2D6AE386E6FF
:1057A0008D190E9495A2CF910F91EF90DF90CF902D
:1057B000089521E04EE65FE069E38AE20E945AA57F
:1057C00087E0CF910F91EF90DF90CF90D2CB9EE703
:1057D0009093260810922708109228081092290802
:1057E00010922A0810922B08909188089871903195
:1057F00009F420E020932C0840932D086E3721F007
:105800006D3719F46DE501C06EE560932E08809345
:105810002F088EE7809330088BE0809325088091D5
:10582000C10080628093C1000895E6EAF8E086EA4C
:10583000DF011D928A95E9F7109298081092750978
:1058400082E090E091AF80AF97AB86ABE6E0F9E005
:1058500080818660808308952F923F924F925F925D
:105860006F927F928F929F92AF92BF92CF92DF9270
:10587000EF92FF920F931F93CF93DF9300D01F926D
:10588000CDB7DEB78C83813659F020F4803609F528
:10589000CCDF1FC02C81223691F0233641F019C095
:1058A00081E6C0DA88EA99E90E94F18A12C0809103
:1058B0007609882311F0815007C083E005C08091EC
:1058C0007609833021F08F5F8093760902C01092B1
:1058D000760900E02091720849E453E160E080E03D
:1058E0000E94CEA54091420821E08091740884175F
:1058F00008F420E050E060E084E50E94B7A48091C5
:105900005413882369F04091370850913808252FA7
:10591000221F2227221F022F60E080E80E945BA442
:1059200080E027DB20917609223008F074C1809155
:1059300023178295837090E0022E02C0959587957B
:105940000A94E2F73CE0239F6001112480FD07C028
:10595000A12CB12CA9E02A2E312C512CD3C0C60188
:10596000875B9C4E6C01E4E04E2EF5E05F2EF60165
:10597000E951FC4F108131966081812F0E943A13CA
:105980005C01F601E751FC4F60816095812F0E9418
:105990003A133C0172E0F72EF50C112309F4A5C06F
:1059A000A816B9060CF0A1C086E0850D849D202CB8
:1059B00011246BEF650D620D00E0212F42EB51E1E8
:1059C00080E00E942BA5E12C0FEF2F2D45E6622DE4
:1059D00089E10E94EAA281E4810F0E9450684C0193
:1059E0006A187B081430A8F1163028F48CEF810F68
:1059F00059DEE82E0EC0812F90E0183060F4069733
:105A000026E0289FF001299FF00D1124E65EF84E54
:105A1000E080F12C08C0FC01EF56F74F6081812F28
:105A20000E943A137C01E114F104A9F023E630E06E
:105A3000D701AA19BB090E9430D59301072C000C8D
:105A4000440B550B0E94F7D4322E33E6331518F071
:105A500003C0E12CF12C312CD401AA19BB0923E697
:105A600030E00E9430D59301770C440B550B0E9417
:105A7000F7D4B22E83E6821710F464E6B62E8E14A5
:105A80009F0414F00FEF01C005E51B50123008F41D
:105A90000195FF24F394F20CE12C252D4B2D6F2D55
:105AA0008AE10E9495A218E1311610F0B11630F487
:105AB000452D6F2D8AE1810F0E941EA3175E1336BC
:105AC00099F7332099F02A942A9400E025E543E0E1
:105AD000450D622D8AE1830D5CDA20E043E0622D02
