:100000000C940F110C9430110C9430110C947B1A39
:100010000C944F1A0C94D41A0C94A81A0C94301106
:100020000C9430110C9430110C9430110C9430114C
:100030000C9430110C948B2B0C9430110C94362CA6
:100040000C9430110C94FFBF0C9430110C943011AF
:100050000C9430110C9430110C9430110C9430111C
:100060000C9430110C9425990C94E42A0C943011C2
:100070000C9430110C9430110C94FB240C940B2B29
:100080000C94EABE0C94CCBF0C9430110C9430113B
:100090000C9430110C9430110C9430110C943011DC
:1000A0000C9430110C9430110C9430110C943011CC
:1000B0000C9430110C9430110C9430110C943011BC
:1000C0000C9430110C9430110C9430110C943011AC
:1000D0000C94F6160C9430110C9430110C943011D1
:1000E0000C94301169136913791379137913791307
:1000F0005013571379135C135C1360136713501379
:1001000060137913791369136B13691379137913D6
:10011000791360136D1365137913791379135013E1
:10012000501357135C135C13601367136513791333
:100130007913791369136913251B291B2F1B351B91
:10014000231B1B1B211B311B3C1B572A2E2A2E2A2B
:100150006C2A6C2A362A362A702A702A702A702A4B
:10016000702A702A702A702A552A572A572A5A2A22
:100170005D2A5F2A612A612A612A6E2A632A692A16
:10018000702A352A352A702A702A702A702A702A15
:10019000702A702A692A552A572A572A5A2A5F2A0A
:1001A000E82DFA2D152E822E9A2E8B2F8B2F8B2F2A
:1001B0008B2FB930B930AC30B6301D30F12FF12F64
:1001C000F52FF52FFA2FFA2F3E3041306330633090
:1001D000633063306330633017301D301D302030A2
:1001E00038303B302330233023305D3029302F30FE
:1001F0006330F82FF82F3E303E30413063306330AB
:10020000633063302F3017301D301D302030E959F6
:10021000F759065A105BA55B2F5C3C5C495C815C1E
:10022000975CA85CBD5CCE5C115DF859075A115B08
:10023000A65B305C3D5C4A5C825C985CA95CBE5C01
:10024000CF5C1D7A2C7A387A967AF37A047B147B09
:100250001C7A2B7A377A957AF27A037B147B607E4C
:10026000147FB37FB67FE47F2C804D8050809F80C9
:100270006F808680C480E380E9800F81FB803781B6
:1002800050817C819181BA8F928F968F9B8FA28FA4
:10029000A68FAB8F8EA8ABA865A99EA99EA98EA894
:1002A000ABA865A99EA99EA98BAA8EAA8EAA15ABFA
:1002B0001BAB3EAB69AB99ABBFABF0AB30AC30AC7A
:1002C00030AC30ACF0AB30AC30AC30AC30AC91B228
:1002D000A0B28FB3A0B2A0B2A0B28FB3A0B2A0B2AE
:1002E000BCB3CEB324B441B453B479B48DB4A6B482
:1002F00044B593B513B6AED580A83FD300408D1456
:100300002000A1C8DA1281CFD9F1DB40A4A6AF4604
:100310006F726D617474696E6720454550524F4D20
:100320000042616420454570726F6D2044617461C4
:1003300000454550524F4D00535053008040FFFF41
:10034000FFFFFFFFFFFFFFFFFFFFFFFFFFFFFFFFBD
:10035000FFFFFFFFFFFFFFFFFFFFFFFFFFFFFFFFAD
:10036000FFFFFFFFFFFFFFFFFFFFFFFFFFFFFFFF9D
:10037000FFFFFFFFFFFFFFFFFFFFFFFFFFFFFFFF8D
:10038000FFFFFFFFFFFFFFFFFFFFFFFFFFFFFFFF7D
:10039000FFFFFFFFFFFFFFFFFFFFFFFFFFFFFFFF6D
:1003A000FFFFFFFFFFFFFFFFFFFFFFFFFFFFFFFF5D
:1003B000FFFFFFFFFFFFFFFFFFFFFFFFFFFFFFFF4D
:1003C000FFFFFFFFFFFFFFFFFFFFFFFFFFFFFFFF3D
:1003D000FFFFFFFFFFFFFFFFFFFFFFFFFFFFFFFF2D
:1003E000FFFFFFFFFFFFFFFFFFFFFFFFFFFFFFFF1D
:1003F000FFFFFFFFFFFFFFFFFFFFFFFFFFFFFFFF0D
:10040000FFFFFFFFFFFFFFFFFFFFFFFFFFFFFFFFFC
:10041000FFFFFFFFFFFFFFFFFFFFFFFFFFFFFFFFEC
:10042000FFFFFFFFFFFFFFFFFFFFFFFFFFFFFFFFDC
:10043000FFFFFFFFFFFFFFFFFFFFFFFFFFFFFFFFCC
:10044000FFFFFFFFFFFFFFFFFFFFFFFFFFFFFFFFBC
:10045000FFFFFFFFFFFFFFFFFFFFFFFFFFFFFFFFAC
:10046000FFFFFFFFFFFFFFFFFFFFFFFFFFFFFFFF9C
:10047000FFFFFFFFFFFFFFFFFFFFFFFFFFFFFFFF8C
:10048000FFFFFFFFFFFFFFFFFFFFFFFF070707075C
:10049000070707070707070707070707070707FFF4
:1004A000FFE7C70707070707071F7FFFFFFF3F0F8C
:1004B000070707070787E7F7FFFFFFFFFFFFFFFFBC
:1004C000FFFFFFFF1F070303C1F1F8F8F8F8F0F191
:1004D000C10303071FFFFFFF00000000F8F8F870DA
:1004E00000010307FFFF00000000383838383838B3
:1004F000FFFF0000000081030F1F3FFFFF0000000F
:1005000000FFFFFF000103070F1F3F7FFEFEFEFEFF
:10051000FEFE00000000000000FEFEFEFEFEFEFFEC
:10052000FFFFFFFFFEF8F0C08000000103000000A5
:10053000C0E0F8FCFFFFFFFFFFFFFFFFFFFFFFFF33
:10054000FFFFFFFFF8E0C0C0838F1F1F1F1F1F8F1B
:1005500083C0C0E0F8FFFFFF00000000F8F8F8F8E3
:10056000F8FCFCFFFFFF000000001E1E1E1E1E1EEA
:10057000FFFF00000000FFFFFCF8F0C0810000005A
:1005800000FFFFFF000080C0E0F0F8FCFEFFFFFF6F
:10059000FFFF00000000000000FFFFFFFFFFFFFF64
:1005A000FFFFFF7F1F0F0301000080E0F0C000008D
:1005B0000003071F3FFFFFFFFFFFFFFFFFFFFFFFDE
:1005C000FFFFFFFFE7E7E7E7E7E7E7E7E7E7E7E75B
:1005D000E7E7E7E7E7E7E7E7E7E7E7E7E7E7E7E7AB
:1005E000E7E7E7E7E7E7E7E7E7E7E7E7E7E7E7E79B
:1005F000E7E7E7E7E7E7E7E7E7E7E7E7E7E7E7E78B
:10060000E7FFFFFFFEFFFFFFFFFFFFFFFFFFFFFF13
:10061000FFFFE0E0E0E0E0E0E0FFFFFFFFFFFFEFD3
:10062000E7E1E0E0E0E0E0F0F8FEFFFFFFFFFFFCC5
:10063000F8E0E0E0E0E0E1E7EFFFFFFFFFFFFFFFB2
:10064000FFFFFFFFFFFFFFFFFFFFFFFFFFFFFFFFBA
:10065000FFFFFFFFFFFFFFFFFFFFFFFFFFFFFFFFAA
:10066000FFFFFFFFFFFFFFFFFFFFFFFFFFFFFFFF9A
:10067000FFFFFFFFFFFFFFFFFFFFFFFFFFFFFFFF8A
:10068000FFFFFFFFFFFFFFFFFFFFFFFFFFFFFFFF7A
:10069000FFFFFFFFFFFFFFFFFFFFFFFFFFFFFFFF6A
:1006A000FFFFFFFFFFFFFFFFFFFFFFFFFFFFFFFF5A
:1006B000FFFFFFFFFFFFFFFFFFFFFFFFFFFFFFFF4A
:1006C000FFFFFFFFFFFFFFFFFFFFFFFFFFFFFFFF3A
:1006D000FFFFFFFFFFFFFFFFFFFFFFFFFFFFFFFF2A
:1006E000FFFFFFFFFFFFFFFFFFFFFFFFFFFFFFFF1A
:1006F000FFFFFFFFFFFFFFFFFFFFFFFFFFFFFFFF0A
:10070000FFFFFFFFFFFFFFFFFFFFFFFFFFFFFFFFF9
:10071000FFFFFFFFFFFFFFFFFFFFFFFFFFFFFFFFE9
:10072000FFFFFFFFFFFFFFFFFFFFFFFFFFFFFFFFD9
:10073000FFFFFFFFFFFFFFFFFFFFFFFFFFFF535024
:100740004500416C61726D732044697361626C6530
:100750006400414C41524D53005344204361726444
:100760002046756C6C002E637376002F4C4F4753F8
:10077000005B4D454E555D085B455849545D00533F
:100780006176696E67206D6F64656C207365747443
:10079000696E6773005348555454494E4720444F7F
:1007A000574E000101020A3C0101041450010108E6
:1007B0001E6402020F287805051E32961B1E272D87
:1007C00036394B4E636C7278878D939CB1B4C6C931
:1007D000D2D8E1E4454550524F4D206C6F77206DE3
:1007E000656D005468726F74746C65206E6F742050
:1007F00069646C65005448524F54544C450044653C
:100800006C65746500466F726D617400496E666F49
:10081000726D6174696F6E0053442043415244000D
:10082000907DB31B97669663CC64AB637D6653443F
:100830002043617264204572726F7200466F726D60
:10084000617474696E672E2E2E0005030706060D6F
:10085000050500000000000000000000FFFFFFFF92
:10086000FFFFFFFFFFFFFFFFFFFF00660076003E78
:10087000001EFFFFFFFFFFFFFFFF800180018001DF
:1008800080018001800180018001FFFFFFFFFFFFE9
:10089000FFFF0030007800780030FFFFFFFFFFFF10
:1008A000FFFF0060006000600060006000600060AA
:1008B0000060FFFFFFFFFFFFF81FFC3F0E700660A8
:1008C00006600E70FC3FF81FFFFFFFFF000018607E
:1008D0001C60FE7FFE7F006000600000FFFFFFFFE6
:1008E00018781C7C0E6E06678663CE61FC607860AB
:1008F000FFFFFFFF06600660866186618661CE733A
:10090000FC3F781EFFFFFFFF8007C007E006700670
:1009100038061C06FE7FFE7FFFFFFFFF7E187E3835
:10092000667066606660E670C63F861FFFFFFFFF69
:10093000F81FFC3F8E71866186618E731C3F181E06
:10094000FFFFFFFF06000600867FC67FE6007600F9
:100950003E001E00FFFFFFFF781EFC3FCE73866146
:100960008661CE73FC3F781EFFFFFFFF7800FC001E
:10097000CE6186718639CE1DFC0FF807FFFFFFFFA1
:100980000000300C781E781E300CFFFFFFFFFFFFC9
:10099000FFFFE07FF07FB8019C018E018E019C017A
:1009A000B801F07FE07FFE7FFE7F86618661866111
:1009B00086618661CE73FC3F781EF81FFC3F0E7087
:1009C00006600660066006600E701C381818FE7F10
:1009D000FE7F0660066006600E701C38381CF00F43
:1009E000E007FE7FFE7F86618661866186618661A3
:1009F000866106600660FE7FFE7F860186018601B5
:100A000086018601860106000600F81FFC3F0E7075
:100A100006608661866186618E719C7F983FFE7F4D
:100A2000FE7F800180018001800180018001FE7FC6
:100A3000FE7FFFFFFFFF06600660FE7FFE7F066011
:100A40000660FFFFFFFF00180038007000600660BE
:100A50000670FE3FFE1F06000600FE7FFE7F80013F
:100A6000C003E007700E381C1C380E700660FE7F55
:100A7000FE7F006000600060006000600060006059
:100A80000060FE7FFE7F1C003800F001F00138009E
:100A90001C00FE7FFE7FFE7FFE7F7000E000C00135
:100AA00080030007000EFE7FFE7FF81FFC3F0E70E4
:100AB00006600660066006600E70FC3FF81FFE7F51
:100AC000FE7F86018601860186018601CE01FC003B
:100AD0007800F81FFC3F0E7006600666066E063C46
:100AE0000E38FC7FF867FE7FFE7F86018601860751
:100AF000860F861DCE39FC7078607818FC38CE7170
:100B000086618661866186618E731C3F181E0600B1
:100B1000060006000600FE7FFE7F060006000600B7
:100B20000600FE1FFE3F0070006000600060006075
:100B30000070FE3FFE1FFE07FE0F001C0038007015
:100B400000700038001CFE0FFE07FE1FFE3F007005
:100B50000070003E003E00700070FE3FFE1F1E78D9
:100B60003E7C700EE007C003C003E007700E3E7CC1
:100B70001E787E00FE00C0018003007F007F80039E
:100B8000C001FE007E000678067C066E066786635E
:100B9000C661E66076603E601E600018003C607EC4
:100BA0006066606660666066E066C07F807FFE7F2C
:100BB000FE7F8061C061E06060606060E070C03FA7
:100BC000801F801FC03FE070606060606060606098
:100BD000607000380018801FC03FE0706060606087
:100BE000E060C0618061FE7FFE7F801FC03FE076D5
:100BF0006066606660666066E066C00780078001C8
:100C00008001F87FFC7F8E01860106000E001C002B
:100C10001800E001F0033867186618661866186651
:100C20001876F83FF81FFE7FFE7F8001C001E000CC
:100C300060006000E000C07F807FFFFFFFFF60601A
:100C40006060E67FE67F00600060FFFFFFFFFFFF60
:100C5000001800380070006060606070E63FE61FBA
:100C6000FFFFFE7FFE7F0006000F801FC039E0708F
:100C70006060FFFFFFFFFFFFFFFF06600660FE7F73
:100C8000FE7F00600060FFFFFFFFE07FE07F60000D
:100C9000E000C007C007E000E000C07F807FE07F89
:100CA000E07F8001C001E00060006000E000C07FE4
:100CB000807F801FC03FE070606060606060606047
:100CC000E070C03F801FE07FE07F60066006600646
:100CD00060066006E007C00380018001C003E007F2
:100CE000600660066006C0078007E07FE07FE07F67
:100CF000E07F8001C001E00060006000E000C00112
:100D000080018061C063E0676066606660666066FF
:100D1000607E003C001860006000F81FF83F6070C3
:100D200060600060007000380018E01FE03F007055
:100D300000600060007000380018E07FE07FE0078E
:100D4000E00F001C0038007000700038001CE00F3D
:100D5000E007E01FE03F00700070003800380070CE
:100D60000070E03FE01F6060E070C039801F000F3E
:100D7000000F801FC039E0706060E001E003006791
:100D800000660066006600660076E03FE01F606077
:100D900060706078607C606E6067E063E061E06076
:100DA00060600000FFFFFFFFFF6FFFFFFF0700070E
:100DB000FF1830180C06087F7F7F08231308646231
:100DC0003649552250FF0503FFFFFF1C2241FFFF5C
:100DD00041221CFF14083E081408083E0808FF5072
:100DE00030FFFF00080808FFFFFF40FFFF2010084A
:100DF00004023E41413EFF00427F40FF62514946AE
:100E0000FF41494936FF1814127FFF27454539FF36
:100E10003E494932FF01790503FF36494936FF064D
:100E200049291EFFFF3636FFFFFF5636FFFFFF083A
:100E3000142241141414141441221408FF02015105
:100E4000090606090906FF7E0909097E7F49494905
:100E5000363E414141227F4141221C7F494949415F
:100E60007F090909013E4149497A7F0808087FFF47
:100E7000417F41FF2040413F017F081422417F40D4
:100E80004040FF7F020C027F7F0408107F3E4141FB
:100E9000413E7F090909063E4151215E7F0919291A
:100EA00046264949493201017F01013F4040403F08
:100EB0001F2040201F3F4030403F63140814630749
:100EC000087008076151494543FF7F4141FF020413
:100ED000081020FF41417FFF605846586040404065
:100EE00040FFFF010204FF20545454787F484444DB
:100EF000383844444420384444487F3854545418C3
:100F0000087E0901020C5252523E7F08040478FF09
:100F1000447D40FF2040443DFF7F102844FFFF41B7
:100F20007F40FF7C041804787C080404783844442B
:100F300044387C14141408081414187C7C08040425
:100F4000084854545420043F4440203C4040207CF6
:100F50001C2040201C3C4020403C44281028440CCD
:100F60005050503C4464544C4410081008FFFFFF9C
:100F70007FFFFF41225428FF0808221C08081C227A
:100F8000080808507265737320616E79204B65798B
:100F9000004D4958455200535449434B53002F3399
:100FA00032002F31360044656C657465004D6F76F4
:100FB0006500436F707900496E73657274204166F5
:100FC00074657200496E73657274204265666F7253
:100FD00065004564697400496E76657274205468D2
:100FE000723F00065472696D73203D3E2053756256
:100FF0007472696D7300534552564F5300000505D6
:101000000505050505050505050505050505004E4C
:101010004F2044415441004163633A00034F464628
:101020004F4E00032D2D2D494E56040134434801E7
:101030003643480138434831304348313243483120
:1010400034434831364348055175696574416C61D4
:10105000726D4E6F4B6579416C6C0020034E6F20B2
:1010600052456152456203524561524562034F4603
:1010700046202B3D203A3D03434831434832434804
:1010800033434834064578706F0020457846696ED2
:101090006546696E6500204D656469756D436F61D5
:1010A00072736501524554413132336162065050CA
:1010B0004D00202050504D31360050504D73696D19
:1010C00003504F534E4547044F4646004B657973D6
:1010D0004374726C426F74684F4E0020032D2D2DA7
:1010E000783E30783C307C787C663E30663C307CA4
:1010F000667C0841646400202020204D756C746972
:10110000706C795265706C61636500022B3D2A3DFD
:101110003A3D034F46464F4E00527564456C655448
:10112000687241696C052D2D2D0020617B780020AF
:10113000613E780020613C7800207C617C3E787CB8
:10114000617C3C78414E4400204F52002020584F93
:10115000520020613D620020613E620020613C62DD
:1011600000205E7D7800207C5E7C7D7854696D0077
:1011700020476C7565000A4F766572722E0020203C
:1011800020547261696E6572002020496E73742E5E
:10119000205472696D5265736574002020202041CF
:1011A000646A7573742000202042656570002020F9
:1011B000202020506C617920547261636B506C6107
:1011C0007920426F746800506C61792056616C0020
:1011D000205B566172696F5D0020205B486170740E
:1011E00069635D00205344204C6F677300202042E8
:1011F00061636B6C696768740004546D7231546D7F
:101200007232416C6C0054656C6D52456100524500
:101210006200044270310042703200427033005765
:10122000726E3157726E32436865655261746154F3
:1012300069636B5369726E52696E67536369465294
:101240006F627443687270546164614372636B418E
:101250006C726D042D2D2D0042617474546D7231C9
:10126000546D7232547800205278002041310020B1
:1012700041320020416C740052706D004675656CFF
:101280005431002054320020537064004469737458
:1012900047416C7443656C6C43656C73566661734F
:1012A00043757272436E7370506F77724163635807
:1012B000416363594163635A4864670056537064DD
:1012C000415370646454450041312D0041322D007A
:1012D000416C742D416C742B52706D2B54312B006A
:1012E00054322B005370642B4473742B4153702B76
:1012F00043656C2D436C732D5666732D4375722BAD
:101300005077722B4163630054696D65035600206A
:101310004100206D2F732D00206B6D686D00204003
:1013200000202500206D41006D4168570020032DED
:101330002D2D59656C4F7267526564013C3E074E16
:101340006F6E6500202048756200202020575348AA
:101350004869676804444D53004E4D4541032D2DA7
:101360002D41310041320046415343656C04416CCC
:101370007400416C742B565370644131002041322B
:1013800000044E756D7342617273042D2D2D003172
:101390003230003132305831343000393000054DB0
:1013A000656E75004578697400446F776E005570FE
:1013B00000202052696768744C65667400032D2D07
:1013C0002D494430494431494432544852525544DD
:1013D000454C4541494C47454154524E74526C74FA
:1013E00052727445647445757454647454757441D0
:1013F0006C7441725245615245624C31004C32006E
:101400004C33004C34004C35004C36004C37004C0B
:1014100038004C39004C31304C31314C31324F4E68
:10142000004F6E65042D2D2D0052756400456C65CE
:10143000005468720041696C005031002050320045
:10144000205033002052456100524562004D415802
:101450000043594331435943324359433354726D26
:101460005254726D4554726D5454726D4133504FE5
:1014700053034F46464F4E00544873544825544832
:101480007405444154453A54494D453A0C4F46463B
:10149000002020202020202020466C6967687400EE
:1014A00020202020204D616E75616C20526573658F
:1014B000740054783A0052783A004D696E205273A5
:1014C0007369005741524E494E47001B20FC0404EB
:1014D0000404040484C48404E4F4E40484C4C4045C
:1014E00004040404040404FCFF000000FCFE00FFEC
:1014F000FFFF80FFFFFF80FFFFFF00000080808074
:101500000000FFFF000000FFFFFFFFFFFFFFFFFFE6
:10151000FFFFFFFFFFF8FCFF3F0F030000FF3F202E
:1015200020202127272F2F2F2B272F2F2F2F2F2F13
:1015300027232020202020203F4D6F6465004E6F20
:101540002066726565206D6978657221004E6F2096
:1015500066726565206578706F2100536964650067
:101560004E2F41004578706F000000000500536C5D
:101570006F772020446E00536C6F772020557000E9
:1015800044656C617920446E0044656C6179205536
:1015900070004D756C747078004F4646005761724C
:1015A0006E696E6700446966660043757276650011
:1015B00044526578005472696D00576569676874B4
:1015C0000001536F757263650000000001010500A2
:1015D00000000000000005000045444954204D492A
:1015E000582000494E53455254204D49582000433D
:1015F000616C004D756C7469706C696572004D6F3B
:101600006465062520536F7572636500536C6176BF
:101610006500545241494E45520000020202020048
:1016200046573A204F70656E54582D6D656761328C
:101630003536301E564552531F1B3A20322E312E5E
:10164000391E444154451F1B3A20323032332D316C
:10165000302D32311E54494D451F1B3A2030303A4F
:1016600031393A33331E454550521F1B3A2032312F
:10167000370056455253494F4E00064D4F564520B0
:10168000535449434B532F504F545300065B4D4521
:101690004E555D205748454E20444F4E450004535B
:1016A000455420535449434B53204D4944504F49CE
:1016B0004E5400085B4D454E555D20544F20535409
:1016C0004152540043414C4942524154494F4E000B
:1016D000120800103810101038100000104400924A
:1016E000004410000000000044FE440000001044CC
:1016F00000920044100000104400920044100000CA
:101700000044FE4400000000001044009200441019
:10171000000010381010103810005472696D2D2020
:101720002B0053574954434845530003010200041A
:10173000050607426174746572792043616C6962C1
:101740000042473A004100414E41530053706565E5
:10175000643A00536563746F72733A0053697A6533
:101760003A00547970653A00534420494E464F0080
:101770002072656D6F766564002F00436F6E666939
:10178000726D20466F726D61743F00AC2000001ACC
:101790002092011E20262020202120C60230206019
:1017A000013920520100007D0100000000182019BD
:1017B000201C201D20222013201420DC0222216165
:1017C000013A20530100007E017801A000A100A28F
:1017D00000A300A400A500A600A700A800A900AAD5
:1017E00000AB00AC00AD00AE00AF00B000B100B285
:1017F00000B300B400B500B600B700B800B900BA35
:1018000000BB00BC00BD00BE00BF00C000C100C2E4
:1018100000C300C400C500C600C700C800C900CA94
:1018200000CB00CC00CD00CE00CF00D000D100D244
:1018300000D300D400D500D600D700D800D900DAF4
:1018400000DB00DC00DD00DE00DF00E000E100E2A4
:1018500000E300E400E500E600E700E800E900EA54
:1018600000EB00EC00ED00EE00EF00F000F100F204
:1018700000F300F400F500F600F700F800F900FAB4
:1018800000FB00FC00FD00FE00FF008081828384DD
:1018900085868788898A8B8C8D8E8F909192939480
:1018A0009596979899AD9B8C9DAE9FA021A2A3A4DD
:1018B000A5A6A7A8A9AAABACADAEAFB0B1B2B3B460
:1018C000B5B6B7B8B9BABBBCBDBEBFC0C1C2C3C450
:1018D000C5C6C7C8C9CACBCCCDCECFD0D1D2D3D440
:1018E000D5D6D7D8D9DADBDCDDDEDFC0C1C2C3C4D0
:1018F000C5C6C7C8C9CACBCCCDCECFD0D1D2D3D420
:10190000D5D6F7D8D9DADBDCDDDE9F53776974638F
:1019100068004C6F6164696E67206D6F64656C2E42
:101920002E2E00496E636F6D70617469626C650084
:101930004E6F2053442043617264002E62696E0032
:101940002F4D4F44454C53004E6F204D6F64656CD6
:1019500073206F6E205344004F776E00476C6F62A8
:10196000616C205661726961626C657300466164E6
:1019700065204F7574004661646520496E00522EE3
:10198000456E6373005472696D73004E616D65003E
:10199000000003010000FF0202020202000000FF3B
:1019A0000101010101464C49474854204D4F44452F
:1019B0000006436865636B0A5472696D730028649E
:1019C000656661756C742900464C49474854204D42
:1019D0004F44455300793D00783D007074007074A9
:1019E0002700015479706500435552564500435510
:1019F00052564553005049542044697265637469D6
:101A00006F6E0041494C20446972656374696F6E62
:101A100000454C4520446972656374696F6E0053DC
:101A2000776173682052696E6700436F6C6C656301
:101A30007469766500537761736820547970650026
:101A400048454C4920534554555000C1AD35B21F4F
:101A500082D5778D468A46A13DF982A1B9BFB629C4
:101A6000A85278204368616E6E656C204F726400E6
:101A700053706C6173682073637265656E00014416
:101A800075726174696F6E0001416C61726D004224
:101A900061636B6C6967687400526F74456E632094
:101AA0004E617669670001496E6163746976697495
:101AB000790001536F756E64204F666600014D65B5
:101AC0006D6F7279204C6F7700014261747465729A
:101AD00079204C6F7700416C61726D7300436F6EBB
:101AE000747261737400014C656E67746800014D17
:101AF0006F646500536F756E640054696D65001FF7
:101B00001C1F1E1F1E1F1F1E1F1E1F446174650009
:101B1000524144494F20534554555000000202FFA2
:101B2000000000FF0000000000FF0000000000FFB8
:101B30000141004200430044004500460047004880
:101B40000049004A004B004C004D004E004F005031
:101B500000510052005300540055005600570058E1
:101B60000059005A002100E0FFE1FFE5FFE2FFE33A
:101B7000FFC000C100C200C300C400C500C600C74A
:101B800000C800C900CA00CB00CC00CD00CE00CFF9
:101B900000D000D100D200D300D400D500D600D8A8
:101BA00000D900DA00DB00DC00DD00DE0078010097
:101BB0000102010401060108010A010C010E0110D5
:101BC0000112011401160118011A011C011E012045
:101BD0000122012401260128012A012C012E0130B5
:101BE0000132013401360139013B013D013F014120
:101BF000014301450147014A014C014E0150015288
:101C0000015401560158015A015C015E01600162F4
:101C1000016401660168016A016C016E0170017264
:101C2000017401760179017B017D0191019103929B
:101C30000393039403950396039703980399039AD8
:101C4000039B039C039D039E039F03A003A103A387
:101C500003A403A503A603A703A803A903AA0310CB
:101C600004110412041304140415041604170418B0
:101C70000419041A041B041C041D041E041F042060
:101C80000421042204230424042504260427042810
:101C90000429042A042B042C042D042E042F0401EF
:101CA00004020403040404050406040704080409E8
:101CB000040A040B040C040E040F04602161216269
:101CC0002163216421652166216721682169216AD8
:101CD000216B216C216D216E216F2121FF22FF23B9
:101CE000FF24FF25FF26FF27FF28FF29FF2AFF2BC0
:101CF000FF2CFF2DFF2EFF2FFF30FF31FF32FF3370
:101D0000FF34FF35FF36FF37FF38FF39FF3AFF005A
:101D1000006100620063006400650066006700689F
:101D20000069006A006B006C006D006E006F00704F
:101D300000710072007300740075007600770078FF
:101D40000079007A00A100A200A300A500AC00AFBA
:101D500000E000E100E200E300E400E500E600E767
:101D600000E800E900EA00EB00EC00ED00EE00EF17
:101D700000F000F100F200F300F400F500F600F8C6
:101D800000F900FA00FB00FC00FD00FE00FF00016E
:101D90000103010501070109010B010D010F0111EB
:101DA0000113011501170119011B011D011F01215B
:101DB0000123012501270129012B012D012F0131CB
:101DC000013301350137013A013C013E0140014236
:101DD000014401460148014B014D014F015101539E
:101DE000015501570159015B015D015F016101630B
:101DF000016501670169016B016D016F017101737B
:101E000001750177017A017C017E019201B103B273
:101E100003B303B403B503B603B703B803B903BAF6
:101E200003BB03BC03BD03BE03BF03C003C103C3A5
:101E300003C403C503C603C703C803C903CA0330E9
:101E400004310432043304340435043604370438CE
:101E50000439043A043B043C043D043E043F04407E
:101E6000044104420443044404450446044704482E
:101E70000449044A044B044C044D044E044F0451DD
:101E80000452045304540455045604570458045986
:101E9000045A045B045C045E045F047021712172C7
:101EA0002173217421752176217721782179217A76
:101EB000217B217C217D217E217F2141FF42FF4327
:101EC000FF44FF45FF46FF47FF48FF49FF4AFF4BDE
:101ED000FF4CFF4DFF4EFF4FFF50FF51FF52FF538E
:101EE000FF54FF55FF56FF57FF58FF59FF5AFF0099
:101EF00000507265737320616E79206B6579207470
:101F00006F20736B697000535749544348000001B8
:101F100002030002010303010200030201005B0847
:101F20005D00476C6F62616C205661726961626C22
:101F300065005374617469737469637300526573E7
:101F4000657420466C696768740052657365742017
:101F500054656C656D6574727900526573657420A3
:101F600054696D6572320052657365742054696DF1
:101F7000657231001F665345531E544D311F665420
:101F80004D321E5448521F66544825005354415444
:101F900053005B4D454E555D20746F20726573652F
:101FA0007400467265652052616D1F54620046726E
:101FB000656520537461636B1F546200546D6978CA
:101FC000206D61781F546D7300546D7231204A6921
:101FD000747465721F54757300546D72314C617462
:101FE000206D696E1F54757300546D72314C6174AD
:101FF000206D61781F547573004445425547004772
:1020000056004348005452004D4F44454C00464D45
:1020100000435600454550524F4D206F766572661D
:102020006C6F77000053637265656E010001464175
:1020300053204F6673000143757272656E74000120
:10204000566F6C746167650001426C616465730072
:102050000150726F746F0055737244617461005265
:1020600053534900014F6666736574000152616EF7
:1020700067650041046368616E6E656C0054454C91
:10208000454D455452590000FF01000202FF010076
:102090000202FF0101FF0000000000000202020234
:1020A00000020202024D4F44454C53454C006672FB
:1020B000656500526573746F7265204D6F64656C61
:1020C00000437265617465204D6F64656C00446502
:1020D0006C657465204D6F64656C004D6F7665208E
:1020E0004D6F64656C00436F7079204D6F64656C53
:1020F000004261636B7570204D6F64656C005365C1
:102100006C656374204D6F64656C004D6F76696E0D
:1021100067206D6F64656C2E2E2E00436F70796999
:102120006E67206D6F64656C2E2E2E0044454C4505
:102130005445204D4F44454C006D730050504D2088
:102140006672616D65004374722042656570003C83
:102150005D00532D5761726E696E6700542D576193
:10216000726E696E6700542D5472696D00542D5360
:102170006F7572636500542D5265766572736500E4
:102180005472696D2053746570005B526573657499
:102190005D00452E5472696D7300452E4C696D6962
:1021A00074730001506572736973742E0054696D05
:1021B00065720001436F756E74646F776E00014D38
:1021C000696E757465005345545550000000020057
:1021D00000000200000000010000000000070801EC
:1021E000024C4F474943414C2053574954434845BB
:1021F00053000003032D3D312B3D31005350454327
:1022000049414C2046554E4354494F4E530000041B
:102210005F2D2E2C008040201008040201001124A4
:102220001FBECFEFD1E2DEBFCDBF00E00CBF15E097
:10223000A0E0B2E0E0E2FAEA01E00BBF02C00790E2
:102240000D92A231B107D9F727E1A2E1B5E001C0B3
:102250001D92A335B207E1F70E943BC10C940ED545
:102260000C94000020918C0D96E0482F50E08FE0F8
:102270002223C9F0FA01829FE00DF11D1124EE0F17
:10228000FF1FE355FA4E60817181693E33E07307A9
:1022900064F037E1360F321710F038E1360F915005
:1022A00029F0232FE5CF90E001C0922F892F0895C8
:1022B000909120089F5F9F7120911F089217E1F372
:1022C000E92FF0E0EA59F84F8083909320080895B1
:1022D0002F923F924F925F926F927F928F929F9236
:1022E000AF92BF92CF92DF92EF92FF920F931F9324
:1022F000CF93DF93CDB7DEB728970FB6F894DEBF44
:102300000FBECDBF2B013C0129833A834B835C83F5
:102310001801FE82ED82D886CF828B019C0142E0BB
:1023200035952795179507954A95D1F705521E4F74
:10233000AB01BC01437055276627772781E090E009
:10234000452B462B472B11F080E090E0081B190B22
:102350006501D594C794D594C79425E2C21A2EEF8F
:10236000D20A21E030E0C50183709927892B11F052
:1023700020E030E0C21AD30A29E130E0C801B901F7
:102380000E94B7D2991F9927991FFB01E91BF109F8
:10239000C601B9010E94B7D2991F9927991F7B01E5
:1023A000E91AF108C501BB0CAA0BBB0BA3019201F2
:1023B000281B390B4A0B5B0BADE6B1E00E94A9D498
:1023C00029813A814B815C81260F371F481F591F95
:1023D000092C000CAA08BB08BA01A901481959091F
:1023E0006A097B090C191D0997012E1B3F0B020F6F
:1023F000131FF595E795F595E795F594E794F59412
:10240000E794CF018E199F09F801E80FF91F8F019A
:10241000FF0F220B330BDB01CA01800F911FA21F9C
:10242000B31F9C01AD01A8E1B0E00E94A9D48101D5
:10243000330C220B330BAB01BC01400F511F621F49
:10244000731F8E8D9F8D092E000CAA0BBB0B9A015A
:10245000AB01281B390B4A0B5B0BACE3B0E00E94CD
:10246000A9D4AD81BE818D01BB0F220B330BAB0113
:10247000BC01400F511F621F731F88A199A1092E33
:10248000000CAA0BBB0B9A01AB01281B390B4A0BA2
:102490005B0BACE3B0E00E94A9D44F8158858A0160
:1024A000550F220B330BDC01CB01800F911FA21FB4
:1024B000B31F0AA11BA1012E000C220B330BBC0180
:1024C000CD01601B710B820B930B28960FB6F8940D
:1024D000DEBF0FBECDBFDF91CF911F910F91FF9057
:1024E000EF90DF90CF90BF90AF909F908F907F90B4
:1024F0006F905F904F903F902F9008951F93CF93D0
:10250000DF93162FC82FD0E0FE01E75FF24F9081D6
:10251000960F9083A7DE482F50E0FE012FE0829FA8
:10252000E00DF11D1124EE0FFF1FE355FA4E8081DF
:1025300091812AE01202800D911D112488312CEF27
:1025400092073CF0883E23E092072CF088EE93E05F
:1025500002C088E19CEF6FE0649F9001659F300DA1
:102560001124C20FD31FCC0FDD1FC355DA4E998340
:10257000888382E0DF91CF911F910C943A2580915E
:10258000340B86FD0CC00E942B248436910538F450
:1025900047E064ED77E081E393E00C94D83408954C
:1025A0008091390B2AEF829FC0011124880F991F57
:1025B00090938A07809389070895CF93DF93EBE286
:1025C000F7E1C0E024E02E0FA491B0E0AA0FBB1FFA
:1025D000A45BB24F8D919C9136E0969587953A9584
:1025E000E1F7C80F31962E13EFCFD2E18D2F0E9465
:1025F0004A8CC90FDF5FD931C9F7809195079C2FAD
:10260000981B892F082E000C990B97FF03C09195FA
:1026100081959109029724F0C093950781E001C04C
:1026200080E0DF91CF9108958091A8129091880762
:10263000981749F180938807C0DF882341F01092F2
:102640009407109293078091220B81FDA9DF80915E
:10265000220B843061F08091890790918A07892B41
:1026600031F48091E30786FB882780F901C081E07F
:1026700090918707992311F091E08927882311F021
:10268000429A08954298089590E0FC013297EA3208
:10269000F10578F58827EE58FF4F8F4F0C9486D4BC
:1026A00028E0629FC0011124845F9140089522E3D5
:1026B000629FC00111240895862F90E04E970895DF
:1026C000862F90E0880F991F089524E1F1CF28E02C
:1026D000EFCF25E0EDCF24E6EBCF862F90E0BC01D5
:1026E0006D5771092AE0269FC001279F900D112484
:1026F0000895862F90E008958A3059F020F4845090
:10270000823028F406C0893111F484EB08958FEFEC
:10271000089584E60895982F86E070E03FE09923BD
:10272000C9F0FB01399FE00DF11D1124EE0FFF1FD1
:10273000EF54FA4E40815181413851056CF02FE73A
:10274000240F291710F020E8240F815011F0922F48
:10275000E6CF089580E00895892F0895FF920F93A2
:102760001F93CF93DF93F82E842F63389FEF790761
:102770002CF06D3771052CF4EB0105C0C3E8DFEFD9
:1027800002C0CDE7D0E06F2DC6DF0F2D10E0F801BD
:102790009FE08902E00DF11D1124EE0FFF1FEF54A1
:1027A000FA4E808191818C179D07A9F0D183C08357
:1027B00082E00E943A2587E0809FF001819FF00D22
:1027C0001124E55AF94E808180FF05C0F0926A0D10
:1027D00084E680938D0DDF91CF911F910F91FF9033
:1027E0000895EF92FF920F931F93CF93DF937B0196
:1027F0008A01481759071CF0861797074CF50138CE
:1028000011051CF4C0E8C80F01C0C82FC7FF03C0E2
:10281000C095DFEF01C0D1E06C2F822F7CDF2FE06D
:10282000829FC0011124FC01EC0FF11DC7FDFA9538
:10283000EE0FFF1FEF54FA4E208131814D2F4203DE
:10284000C001439F900D11248E159F050CF4C70104
:10285000081719070CF4C801DF91CF911F910F9150
:10286000FF90EF900895CF93C82FFCDC2FE0829F5C
:10287000C0011124FC01EC0FF11DEE0FFF1FE35509
:10288000FA4E80819181CF910895982F86E070E073
:102890003FE09923D1F0FB01399FE00DF11D112498
:1028A000EE0FFF1FE356FA4E40815181453F21E074
:1028B00052076CF02BE0240F291710F02CE0240FA6
:1028C000815011F0922FE5CF089580E00895892F6F
:1028D0000895CF93C62FD9DF2FE0829FC001112426
:1028E000FC01EC0FF11DEE0FFF1FE356FA4E808145
:1028F0009181CF9108950F931F93CF9303EC15E12E
:10290000C1E0F8018081882331F00E94D4BC882383
:1029100011F08C2F06C0CF5F025E1F4FC63089F7C3
:1029200080E0CF911F910F910895282FE0913A0BED
:10293000F0E0E454F84FE491F0E084E090E0821B92
:102940009109880F991F9F0102C0359527958A9597
:10295000E2F7C90183708F5F0895EF92FF920F93A2
:102960001F93CF93DF9382E00E943A2508EC12E197
:10297000C0E0D0E08AE0E82E94E6F92EEC9EF0016B
:10298000ED9EF00D1124EA53FD4E9C2F9F70808127
:10299000807F892B8083F801F0828C2F8F5FC5DFC9
:1029A000F801319780832196065F1F4FC430D1050F
:1029B00029F7DF91CF911F910F91FF90EF9008952C
:1029C0009091340B95FF05C0823018F024E12093DC
:1029D00087079871983049F0911103C0811105C0A3
:1029E00008959831F1F48330E0F020913F0B229567
:1029F000220F207E25952595259525952595022E36
:102A0000000C330B2E5F3F4F95E0929FF001939F98
:102A1000F00D1124E80FF11DED55F84FE491E0930E
:102A20001E080895EF92FF920F931F93CF93DF93A9
:102A30008091A8129091A91201969093A912809367
:102A4000A8128091890790918A07009729F0019731
:102A500090938A078093890780918707882319F0CC
:102A60008150809387078091CF0A882319F0815085
:102A70008093CF0A8091060D882319F081508093AE
:102A8000060D80911D0C882319F0815080931D0C38
:102A90008091080D8F5F8093080D8436A9F4809192
:102AA0000B0D90910C0DA0910D0DB0910E0D019696
:102AB000A11DB11D80930B0D90930C0DA0930D0DD6
:102AC000B0930E0D1092080D609103016170C1E08A
:102AD0006C2780EC97E00E94312760910301669596
:102AE00061706C2783EC97E00E9431278091090187
:102AF0008095C82FC073C695C695C6958F70880FF0
:102B0000880F880FC82B26E9E22E27E0F22E01E07D
:102B100010E00C2E000CDD0BBE01002E02C07595DE
:102B200067950A94E2F76170C7010E9431270F5F31
:102B30001F4F43E0E40EF11C0730110569F7FFB0A9
:102B4000F09405E112E2C0E0D0E0F80184918F2119
:102B500061E009F460E0CE018855984F0E9431276A
:102B60000F5F1F4F2396C831D10579F780913D0B38
:102B7000882339F190E0FC01E85FF24F3081209129
:102B80008607F32FF21B2F2F41F030938607221F69
:102B90002227221F22522093F80B2091F80B422F5C
:102BA0004F7150E00D964817590759F4822F807ED7
:102BB000803211F48FEC03C0803819F48EEC8093CE
:102BC000F80BE091B20B4E2F42954F7050E060E051
:102BD00080E090E0262F30E02417350744F4E90127
:102BE000CE5AD44F2EA1820F911D6F5FF3CF65E0B7
:102BF00070E00E94CAD2EB017093CD0B6093CC0BB6
:102C00008091EE0B9091EF0B6817790724F4709385
:102C1000EF0B6093EE0B1091440B112309F47CC071
:102C2000E3FD69C0809184168295869586958370B0
:102C3000823080F445E0849FF0011124EE5AF44F75
:102C4000608170E00E94AF4A6AE070E00E94B7D2F3
:102C5000EB0106C0823021F4C091D60BD091D70B86
:102C60002091B40B3091B50B8091A11687708150E3
:102C7000823078F495E0899FF0011124EE5AF44FE8
:102C8000608170E00E94AF4A6AE070E00E94B7D2B3
:102C90009B01A90156954795D695C7954C9FC001B4
:102CA0004D9F900D5C9F900D112469E170E00E9492
:102CB000CAD27093D30B6093D20B8091D00B9091BA
:102CC000D10BB901680F791F7093D10B6093D00BB2
:102CD0006031EEE07E0778F08091CE0B9091CF0BC3
:102CE00001969093CF0B8093CE0B60517E407093F2
:102CF000D10B6093D00B8091D20B9091D30B20918C
:102D0000F40B3091F50B2817390708F065C0909344
:102D1000F50B8093F40B60C060E08CE59BE00E94B3
:102D2000004B60E080E69BE00E94004B8091130C1A
:102D300080FF08C08091A8129091A912811102C051
:102D400081E03EDE8091130C81FF0DC08091A812BE
:102D50009091A912803409F443C08091A8129091F7
:102D6000A9128834E9F18091130C82FF12C080917E
:102D7000A8129091A9128038B1F18091A812909177
:102D8000A912883881F18091A8129091A9128039F6
:102D900051F180918A08882329F080918A08815016
:102DA00080938A0880918908882329F08091890876
:102DB00081508093890880910702897F8093070260
:102DC0008091A81681608093A816DF91CF911F9102
:102DD0000F91FF90EF90089511501093440BA6CFE0
:102DE00081E0EEDDC0CF81E0EBDDD3CF1F920F920B
:102DF0000FB60F9211240BB60F928F939F93EF9300
:102E0000FF939091200880911F089817D9F0E091C6
:102E10001F08EF5FEF71E0931F08F0E0EA59F84FE9
:102E200080818F3E59F48091D1008F7D8093D100B5
:102E300080E190E090932208809321088081809324
:102E4000D60005C08091D1008F7D8093D100FF9185
:102E5000EF919F918F910F900BBE0F900FBE0F902F
:102E60001F9018951F93CF93DF932091340B2871F7
:102E7000203189F0EC011FB7F89421968EE718DA1B
:102E800084E016DA83E014DA8D2F12DA8C2F10DA50
:102E90008FEE0EDA1FBFDF91CF911F910895BC0115
:102EA0008BE09DE00C9486A20F931F938B019C01F5
:102EB0000370112722273327012B022B032BB1F498
:102EC00024E630E040E050E00E946AD4672B682B93
:102ED000692B71F4BA01A90143705527662777273A
:102EE00081E0413051056105710519F080E001C0B4
:102EF00081E090E01F910F9108952F923F924F92A1
:102F00005F926F927F928F929F92AF92BF92CF9279
:102F1000DF92EF92FF920F931F93CF93DF93CDB782
:102F2000DEB7AD970FB6F894DEBF0FBECDBF1C0164
:102F3000DC018C91E82F880FFF0BFB8FEA8FF101EA
:102F40008181082F880F110B1D8F0C8F8281282FF4
:102F5000880F330B3F8F2E8F73808481082E000CD7
:102F6000990B65806CE070E00E94B7D22C01052DB2
:102F7000001F0027001F10E0862C062C000C99086B
:102F8000AA08BB08CB01801B910B092E000CAA0BD1
:102F9000BB0BA5019401280F391F4A1F5B1F28A3F3
:102FA00039A34AA35BA3CA01B9017EDF2CE0209FAD
:102FB000F001219FF00D1124E40DF51D4DE0DC0121
:102FC0004A9FC0014B9F900D1124E80FF91FEE0F8F
:102FD000FF1FE65AFD4F808191810197092E000C59
:102FE000AA0BBB0B472D072C000C550B660B770B60
:102FF0008C019D01040F151F261F371F0EA31FA351
:1030000028A739A720916207309163074091640790
:10301000509165072A8B3B8B4C8B5D8BC901919539
:10302000819591099F938F931F921F921F921F92D8
:10303000812C912C46E4A42EB12CCA8CDB8CEC8C18
:10304000FD8C0E8D1F8D2EA13FA148A559A568A10D
:1030500079A18AA19BA13CD90F900F900F900F905E
:103060000F900F906E877F87888B998B262D660C2B
:10307000330B3595279523523109872D770C990B02
:10308000892F990F990B859585953901680E791EC1
:10309000C801990F880B990F982F881F680E791E09
:1030A000C701990F880B982F680E791EC601990FDA
:1030B000880B982F680E791E8E859F85A889B989FF
:1030C0001AE1B595A795979587951A95D1F7861921
:1030D000970997FF03C09195819591094697CCF187
:1030E0004E855F8568897989409550956095709582
:1030F000DB01CA012AE1B595A795979587952A9591
:10310000D1F78619970997FF03C091958195910989
:1031100046972CF06FEF7FEF8FEF9FEFFCC0DB0146
:10312000CA010E851F8528893989801B910BA20B46
:10313000B30B0A891B892C893D89080F191F2A1F87
:103140003B1F0A8B1B8B2C8B3D8B4E875F87688BBD
:10315000798B2E853F85488959892A873B874C87FB
:103160005D872E8B3F8B488F598F2AA73BA74CA793
:103170005DA7A6E0B0E0BDA3ACA3BE016F5F7F4F2B
:10318000CE010A960E9486A24A845B846C847D8468
:1031900088849984AE800A2C000CBB088981282F72
:1031A000082E000C330B3F938F938A81282F082E13
:1031B000000C330B3F938F938B81282F082E000C2C
:1031C000330B3F938F93CA8CDB8CEC8CFD8C0E8D74
:1031D0001F8D2EA13FA148A559A568A179A18AA15B
:1031E0009BA176D80F900F900F900F900F900F909B
:1031F00053014201860E971EA81EB91E21E08414B9
:103200009504A604B7040CF420E0AB01BC014427EC
:1032100077FD439555276627772724131DC077FE32
:103220000DC092E049165104610490E87906BCF49F
:10323000D301C2010196A11DB11D1AC0AEEF4A16FD
:10324000AFEF5A066A06AFE77A0674F0D301C201FF
:103250000197A109B1090CC0D501C40109C080E0E2
:1032600090E0A0E0B0E804C08FEF9FEFAFEFBFE7C2
:10327000481659066A067B0661F10AA51BA52CA50E
:103280003DA5401651066206730649F42E893F8912
:10329000488D598D4216530664067506D1F44CA12B
:1032A0005DA1415051095DA34CA3452B09F432CFD8
:1032B0008A879B87AC87BD878E899F89A88DB98DAA
:1032C0008AA79BA7ACA7BDA74E8A5F8A688E798E16
:1032D00054CF8A899B89AC89BD89840D951DA61D13
:1032E000B71D0E851F8528893989801B910BA20B7C
:1032F000B30B8093620790936307A0936407B09326
:10330000650789E0FE013196D10101900D928A9501
:10331000E1F7B201C301AD960FB6F894DEBF0FBE60
:10332000CDBFDF91CF911F910F91FF90EF90DF9074
:10333000CF90BF90AF909F908F907F906F905F9055
:103340004F903F902F9008950E949835892B21F03F
:103350001092AA091092A909109213051092120551
:1033600008950F931F93CF93DF93CDB7DEB7609788
:103370000FB6F894DEBF0FBECDBF80915E0790916F
:103380005F07A0916007B0916107892B8A2B8B2B77
:10339000F1F58091070280FD3AC040E050E0BA01AB
:1033A00089E00E94473A811130C060E170E0CE01AF
:1033B00001960E94DF39892B41F1298130E086E0B6
:1033C000359527958A95E1F78A85998521303105CC
:1033D00089F5482F50E04F5F5F4F292F30E0322FA3
:1033E0002227CA01820F931FA0E0B0E0EAE0880F15
:1033F000991FAA1FBB1FEA95D1F780935E07909390
:103400005F07A0936007B09361070E94353A60910F
:103410005E0770915F0780916007909161076096E9
:103420000FB6F894DEBF0FBECDBFDF91CF911F91D5
:103430000F910895288544E0249F90011124A9014B
:103440004F5F5F4F292F30E096E0359527959A958D
:10345000E1F7240F351F4F81437050E0542F44276C
:10346000550F550F240F351F890120E030E09E8154
:10347000692F6F709B85991F9927991F960F8370ED
:10348000880F890F8750B901A80104C0440F551F48
:10349000661F771F8A95D2F7DB01CA01AECF1F9254
:1034A0000F920FB60F9211240BB60F922F933F93EA
:1034B0004F935F936F937F938F939F93AF93BF933C
:1034C000EF93FF9389B18C7019F461E081E016D815
:1034D000FF91EF91BF91AF919F918F917F916F91EC
:1034E0005F914F913F912F910F900BBE0F900FBEA8
:1034F0000F901F9018951F920F920FB60F921124E4
:103500000BB60F922F933F934F935F936F937F93DD
:103510008F939F93AF93BF93EF93FF9389B18C7079
:1035200021F46FEF81E00E947E12FF91EF91BF9135
:10353000AF919F918F917F916F915F914F913F914B
:103540002F910F900BBE0F900FBE0F901F901895EC
:103550001F920F920FB60F9211240BB60F922F935A
:103560003F934F935F936F937F938F939F93AF930B
:10357000BF93EF93FF938CB1807319F461E00E94C5
:103580007E12FF91EF91BF91AF919F918F917F91AB
:103590006F915F914F913F912F910F900BBE0F90C4
:1035A0000FBE0F901F9018951F920F920FB60F929B
:1035B00011240BB60F922F933F934F935F936F930A
:1035C0007F938F939F93AF93BF93EF93FF938CB1B0
:1035D000807319F46FEF0E947E12FF91EF91BF91FB
:1035E000AF919F918F917F916F915F914F913F919B
:1035F0002F910F900BBE0F900FBE0F901F9018953C
:10360000FC01803191056CF4EE0FFF1F8E0F9F1FA0
:10361000FC01EA56F84F81E09081911136C080E0BC
:1036200008957097E930F10570F58827E456FF4F4B
:103630008F4F0C9486D48091090186FB882780F9EE
:1036400018C089B11BC082B301C086B1809581705A
:103650001BC0309B18C086B18695817015C086B19D
:1036600001C082B38695817004C082B382FB882733
:1036700080F991E0892708C0809109018095881F11
:103680008827881F01C080E081700895809109011A
:1036900090E0809590958F739927892B59F48091AC
:1036A000030180FF07C0809103018695817091E03E
:1036B0008927089581E0089590910001892F8072F3
:1036C00095FD06C09091000196FD03C083E008952A
:1036D00080E008950F931F93CF93DF93C09152160C
:1036E0008FEF8C0F833010F4CD5F01C0C2E080916A
:1036F000C21283FD2CC00E94A79982E00E94D49040
:10370000D0E0CC0FDD1FCF5BD84E8881998181310D
:103710009C4FECF021E041EF5EE163EE77E085EF56
:1037200097E00E94B54E0E94A79982E00E94D49033
:1037300008811981C1DF833051F0A8DF811107C0F2
:1037400001311C4F24F00E941413A895ECCFDF9197
:10375000CF911F910F910895F8948091A8129091A4
:10376000A912789408952F923F924F925F926F9290
:103770007F928F929F92AF92BF92CF92DF92EF9201
:10378000FF920F931F93CF93DF93CDB7DEB7CA5647
:10379000D1090FB6F894DEBF0FBECDBF6C968FAFC8
:1037A0006C97CE0101962E969FAF8EAF2E978BE130
:1037B00090E060969FAF8EAF6097809190078823CE
:1037C00009F4F1C0109290078CE398E00E941F4F1B
:1037D000BBDD62961FAE1EAE6297CE01805B9F4F2F
:1037E0000E947D866E969FAF8EAF6E9797FDD5C077
:1037F000FC01EE0FFF1FE05FF24FE080F180E1146B
:10380000F10409F4CAC0D7011C926D96BFAD6D9743
:10381000A396BFAFA3978B2F0E94EA3C857009F057
:10382000BCC0A396EFADA397E11116C0809107022B
:1038300080FD15C040E050E0BA0189E00E94473A9F
:103840008111D5C260E170E0CE014C960E94DF3953
:10385000892B09F0D2C2CBC284E090E002C083E0A1
:1038600090E0892B09F099C020E8421651046104C8
:10387000710408F492C017C3C801880F991FFC0196
:10388000E75EFD4F20803180211492E0390608F474
:1038900024C3232C33242694910140E050E0669603
:1038A0002CAF3DAF4EAF5FAF6697C301B2010E9430
:1038B00048D4263F8FE038074105510508F01DC365
:1038C000A3E0B0E00E94A9D4DC01CB010196A11DC8
:1038D000B11DB695A795979587950396A11DB11D26
:1038E00021E06B962FAF6B9781509E4FAF4FBF4F2C
:1038F0009C01AD0169E056954795379527956A95E6
:10390000D1F76A962CAF3DAF4EAF5FAF6A9780E2BA
:1039100090E0A0E0B0E0A7968CAF9DAFAEAFBFAF98
:10392000A79721E030E040E050E0A2962CAF3DAFF9
:103930004EAF5FAFA2976A968CAD9DADAEADBFADF9
:103940006A97A2962CAD3DAD4EAD5FADA297820FAA
:10395000931FA41FB51FA7962CAD3DAD4EAD5FAD17
:10396000A797280F391F4A1F5B1FAB962CAF3DAF9F
:103970004EAF5FAFAB97DA01C90166962CAD3DAD96
:103980004EAD5FAD6697820F931FA41FB51F4816FB
:1039900059066A067B0608F0E8C28EE298E090932A
:1039A000240E8093230E00918C0910918D0927E03D
:1039B00040E258E061E06C968FAD6C970E947D51BB
:1039C00088E198E00E944B7680918F07181614F4D6
:1039D00010928F076C962FAD6C97203809F454C065
:1039E00030F42036C1F0243609F08BC014C06C9638
:1039F0003FAD6C973F3B21F03F3C09F082C00BC0CC
:103A00008EE892E00E94AC8B8FEF9FEF90938B0932
:103A100080938A0976C080918D0790918E070097D8
:103A200009F46FC0019720918B0730918C07AC018E
:103A3000421B530B9A014CE1429FC001439F900DE2
:103A400011248E53974FFC01238D211118C00E9421
:103A5000AC8B10928C0710928B0781E090E09093D2
:103A60008E0780938D078FEF9FEF90938B09809344
:103A70008A096C968FAD6C970E941B2742C06C968A
:103A8000FFAD6C97FF3CE9F56C968FAD6C970E948B
:103A90001B2720918D0730918E0780919C0D90916E
:103AA0009D0D232BC1F4FC01EE0FFF1FE057F24FD9
:103AB0002CE038E0318320839C012E5F3F4F309310
:103AC0009D0D20939C0D880F991FFC01EE56F24F1F
:103AD00085E098E00EC09C012F5F3F4F30939D0D15
:103AE00020939C0D880F991FFC01E057F24F8EEF39
:103AF00097E09183808385EE90E690938F0D80937D
:103B00008E0D02EC18E020918A0930918B09E0902B
:103B10008B07F0908C072E153F0509F401C1E114C5
:103B2000F10431F410928B0910928A0984EC30C0B0
:103B300080918C0990918D090797E816F90651F448
:103B4000F0928B09E0928A0984ECF80111928A952F
:103B5000E9F722C048EA50E02E153F0590F46EEDDB
:103B600078E082EC98E00E94B9D44AE150E06FEF2F
:103B700070E08AE699E00E94CAD481E080938509CA
:103B80000BC062EC78E08EED98E00E94B9D48CE135
:103B9000D8011D928A95E9F710928D0910928C092F
:103BA0006EEE74E0CE014C960E943E8B892B09F09C
:103BB000B7C092EC692E98E0792E332433942CE12F
:103BC000422E36E0832E912CBE016A5C7F4FCE01DF
:103BD0004C960E943E84892B09F0A2C08FAD8823A9
:103BE00009F49EC08E3229F421968FAD2197882347
:103BF00059F32E960EAD1FAD2E97F80180818111DD
:103C000003C08E01015C1F4FF80101900020E9F70D
:103C10003197E01BF10B7B97B8F680918C0990915E
:103C20008D09019690938D0980938C095EAC54FAAE
:103C3000552450F85324E114F104A9F482ECA82E81
:103C400088E0B82EC12CD12C2C2CD5018C91882346
:103C500009F4C3C4A501B801852D0E9421688823F9
:103C600009F4F7C4BAC480918A0990918B098E1522
:103C70009F05A1F4AAE6CA2EA9E0DA2EB6E0BB2E73
:103C8000D6018C91882309F4CBC4A601B801852DF7
:103C90000E943A68882309F4E8C4C2C48E159F05BF
:103CA00000F54EE459E0B801852D0E943A6888235A
:103CB00009F48ACF4AE659E0B801852D0E942168AF
:103CC000882309F481CFEAE6F9E0DF01242D1D9273
:103CD0002A95E9F7B801CF010E94EFD450928509E7
:103CE00073CF4EED58E0B801852D0E9421688823DE
:103CF00009F46ACF42EC58E0B801852D0E943A6879
:103D0000882309F461CFD301E42D1D92EA95E9F7E8
:103D1000B80182EC98E00E94EFD45092DD0854CFB5
:103D200080908B0790908C0790928B0980928A09E3
:103D3000E2ECCE2EE8E0DE2EFDEDEF2EF8E0FF2ED9
:103D400019E0A12CB12C1092920780918D079091CF
:103D50008E070197881999098A159B0511F000E2D1
:103D600001C002E2D6018C918823D9F0F70180814D
:103D7000811105C0202F4BE5612F0E94A728202F1D
:103D8000A601612F809192070E941AA1D7018C9100
:103D9000811107C0202F4DE5612F809192070E946D
:103DA000A728BFEFAB1ABB0A185FECE1CE0ED11CFF
:103DB000FCE1EF0EF11C113431F6C659DF4F0FB69E
:103DC000F894DEBF0FBECDBFDF91CF911F910F9151
:103DD000FF90EF90DF90CF90BF90AF909F908F902B
:103DE0007F906F905F904F903F902F90089501E0EB
:103DF00010E00E94353AC80134CD2C8D30E076E0D9
:103E0000359527957A95E1F78DA19CA12130310553
:103E1000B9F4482F50E04F5F5F4F292F30E0322F29
:103E20002227CA01820F931FA0E0B0E02C013D01C0
:103E30008AE0440C551C661C771C8A95D1F731C06A
:103E40002BA1F4E02F9F90011124A9014F5F5F4F38
:103E5000292F30E0B6E035952795BA95E1F7240F84
:103E6000351F4AA1437050E0542F4427550F550F7A
:103E7000420F531F60E070E099A1292F2F709EA17F
:103E8000991F9927991F920F8370880F890F875068
:103E90002A013B0104C0440C551C661C771C8A9502
:103EA000D2F700E0A5CFC301B20120ED37E040E03A
:103EB00050E00E9448D4EFE2F2E000E010E06191AF
:103EC0007191CB01A0E0B0E0281739074A075B07E2
:103ED00008F0D2CC0F5F1F4FF2CF2114310449F00C
:103EE000A1E82A16310408F4D7CC70E8272E312C2B
:103EF000D3CC22242394312CCFCC263F9FEF3907FB
:103F00004105510508F4B9C3DA01C90142E0880F3F
:103F1000991FAA1FBB1F4A95D1F7895F9D4FAF4FCD
:103F2000BF4F9C01AD0169E05695479537952795A0
:103F30006A95D1F76A962CAF3DAF4EAF5FAF6A97E7
:103F400033E06B963FAF6B97A7961CAE1DAE1EAECF
:103F50001FAEA79780E290E0A0E0B0E0A2968CAF01
:103F60009DAFAEAFBFAFA297E6CCA3963FADA397F0
:103F7000311167C08091070280FD66C080918B0877
:103F800040E050E0BA0182FF26C08DE80E94473A27
:103F9000811104C30E94EB8360E170E0CE014C9676
:103FA0000E94DF39892B09F4F9C210E30E94EB83E8
:103FB0001150E1F78EA182958F7030E1832E912C04
:103FC000A12CB12C04C0880C991CAA1CBB1C8A957E
:103FD000D2F700E032C089E00E94473A8111DEC288
:103FE00060E170E0CE014C960E94DF39892B09F424
:103FF000D5C290918B088FA191FFD2C2881F8827CC
:10400000881F882E912C4FEF841A940A8EA18F73EB
:10401000880E911C880E911C89A590E026E095954C
:1040200087952A95E1F7019702C0880C991C8A951B
:10403000E2F7A12CB12C00E010E00E94353AC80153
:1040400005C084E090E002C083E090E0892B51F449
:10405000D501C4010197A109B10981159048A105B5
:10406000B10520F0812C912C54018394AB968CAD3A
:104070009DADAEADBFADAB970197A109B109880D5C
:10408000991DAA1DBB1DB094A09490948094811C8E
:10409000911CA11CB11C88229922AA22BB22AB969A
:1040A0002CAD3DAD4EAD5FADAB97821A930AA40A1D
:1040B000B50A6B963FAD6B97333089F4A2968CAD01
:1040C0009DADAEADBFADA297880D991DAA1DBB1DBC
:1040D000A2968CAF9DAFAEAFBFAFA29710C06A964D
:1040E0002CAD3DAD4EAD5FAD6A97280D391D4A1D13
:1040F0005B1D6A962CAF3DAF4EAF5FAF6A97D301A1
:10410000C201A2962CAD3DAD4EAD5FADA297821B14
:10411000930BA40BB50B6A962CAD3DAD4EAD5FADC8
:104120006A97821B930BA40BB50BBC01CD01A7961C
:104130002CAD3DAD4EAD5FADA797621B730B840BED
:10414000950B66962CAD3DAD4EAD5FAD66970E946A
:1041500048D449015A016B963FAD6B97323049F410
:1041600046EF84164FE09406A104B10408F415CC80
:104170000DC06B965FAD6B97533041F486EF881698
:104180008FEF9806A104B10408F407CC670192E30D
:10419000C90ED11C40E052E060E070E0C6010E9410
:1041A0000D984BE050E06AEB74E0C6010E949898CD
:1041B000F70115AE82E086AF27AEE05CFF4F6F9649
:1041C0002FAD6F9720833196A0963FADA097308397
:1041D00081E0319680836B964FAD6B97433011F041
:1041E00082E001C080E0F701ED5BFF4F1082319665
:1041F0008083852D99274114510451E0650671048F
:1042000028F431964082319680830AC0F701EE5A35
:10421000FF4F408231968083319660823196708262
:1042200080EFF701E95BFF4F80838FE33396808354
:10423000319610828FEF31968083319610823196BD
:1042400010823196108231961082319610820E942F
:10425000A498272F33272C016624772466964CAE2A
:104260005DAE6EAE7FAE6697492E552466247724E8
:104270006B964FAD6B97F701433009F041C0EB5897
:10428000FF4F608331962083319663965FAD6397CD
:10429000508331964082B29767968FAD679780833F
:1042A000319668969FAD6897908331966996AFADC9
:1042B0006997A08331966A96BFAD6A97B08382E012
:1042C0003596808331961082319610823196108215
:1042D00081E0319680833196108286E0319680832A
:1042E0003196108280E83D96808389E23296808301
:1042F00043E150E066EC74E0C70187589F4F23C04C
:10430000E75AFF4F608331962083319663962FAD35
:104310006397208331964082749767963FAD679785
:104320003083319668964FAD6897408380E83D961C
:10433000808389E23296808343E150E06AED74E045
:10434000C701835A9F4F0E94989885E5F701E05D69
:10435000FD4F80838AEA3196808301E010E020E0FF
:1043600030E0A901B6016D968FAD6D970E94B23A0B
:10437000892B09F012CB6B965FAD6B97533051F4DC
:1043800026E030E040E050E0B6016D968FAD6D97CD
:104390000E94B23A40E052E060E070E0C6010E9444
:1043A0000D986B968FAD6B97833069F0813011F467
:1043B00080E001C08FEF90EFF70192AB9FEF93ABDE
:1043C00094AB85AB10C080EFF70182AB8FEF83AB6E
:1043D00084AB85AB86AB87AB80AF81AF82AF83AF59
:1043E00084AF8FE085AF01E010E0A2962CAD3DAD2B
:1043F0004EAD5FADA297B6016D968FAD6D970E94E1
:10440000B23A892B09F0C9CA40E052E060E070E09E
:10441000C6010E940D98412C512C32014394A29662
:104420002CAD3DAD4EAD5FADA297240D351D461DA3
:10443000571D6A968CAD9DADAEADBFAD6A9748165F
:1044400059066A067B0688F401E010E0B601A396DF
:104450008FADA3970E94B23A892B09F09ECAFFEF55
:104460004F1A5F0A6F0A7F0ADACF6B969FAD6B9780
:10447000933021F0A5962EAC3FACA59729013A01C7
:10448000AFEF4A1A5A0A6A0A7A0A01E010E0B60146
:10449000A3968FADA3970E94B23A892B09F07DCAEB
:1044A000B1E02B1A3108A301920141F76B96EFADF1
:1044B0006B97E33009F048C082E5F70182AB83AB2C
:1044C00081E684AB91E495ABEA5EFD4F22E7208361
:1044D00031962083319690833196808331968FEF89
:1044E000880D80833196C40101979083F1E08F1A83
:1044F0009108A108B108F701E45EFD4FA082319652
:10450000B082319682E0808331961082319610829B
:10451000319610823F9685E5808331968AEA8083C2
:1045200021E030E040E050E0B6016D968FAD6D9730
:104530000E94B23A27E030E040E050E0B6016D96CC
:104540008FAD6D970E94B23AA3964FACA3974110DE
:1045500012C08091070280FD11C00E94383A892B59
:1045600021F00E94353A00E001C001E010E00E9415
:10457000353AC80105C084E090E002C083E090E0D5
:10458000892B09F00ACA8EE892E00E94AC8B8FEF6B
:104590009FEF90938B0980938A0905CA01E04CCD67
:1045A000282F237082958695877090E058E0259F8C
:1045B000800D911D112401962EA12C7730E03595A8
:1045C0002795359527952F5F3F4F829F4001839F09
:1045D000900C929F900C11242CCD96E02916A9F0F6
:1045E000C4018C199D09489EA001499E500D1124BB
:1045F000BFEFCB1ADB0A4C9CC0014D9C900D1124DF
:10460000B5018E53974F0E94B9D4F501242D119214
:104610002A95E9F7B801C5010E94EFD4F50117C04A
:10462000BB2059F0BB2DECE1BE02A00111246EEDC0
:1046300078E082EC98E00E94B9D4D601E42D1D9276
:10464000EA95E9F7B801C6010E94EFD4F601538E4E
:10465000BBCAAFEFCA1ADA0ABCE1AB0EB11CE7E085
:10466000CE16D10409F0F0CAAFCABA94FCE1CF1A51
:10467000D1082FEFB21204CBA7CADA01C901029602
:10468000A11DB11D880F991FAA1FBB1F32E06B9699
:104690003FAF6B9729C9FC01808141FF02C0682BA5
:1046A00008C042FF05C0962F9095682F692301C06E
:1046B0006827608308950F93CF93DF93382FD62F09
:1046C000C22F2D3069F422E3249FC001259F900D55
:1046D00011246BE170E00E94B7D2AB01C4E003C0CB
:1046E000233109F4C6E0202F2F7B6D2F832F0E94EA
:1046F00072A006FD0BC0C33049F000E02C2F4CE047
:1047000053E16D2F809191070E94EBA0DF91CF9133
:104710000F910895282FCB013AE0FB0111923A95B1
:10472000E9F72E31F8F42F5F2093960E1092980E31
:104730001092970E30E0F901EE0FFF1F2E0F3F1F72
:10474000F901EA5DF14F24812093990E10929A0E9F
:104750001092250E10929C0E10929B0E6AE070E053
:104760000C94A3A50895CF93DF931F92CDB7DEB726
:1047700020E1829FC0011124BC01605A7F4F41E0BB
:1047800050E0CE0101960E941DD489810F90DF91E7
:10479000CF910895CF92DF92EF92FF920F931F93E4
:1047A000CF93DF931F92CDB7DEB78C01D42EDC01FF
:1047B000EC91F0E0CF01880F991FE80FF91FE55D3C
:1047C000F14F80812181922F9F70F80121813281E8
:1047D000821B930B242F30E08217930708F4D82E06
:1047E0007B01CD2CCC2021F1F8018381882301F1BC
:1047F00064816F5F648370E0F0E18F9F600D711DD5
:104800001124605A7F4F41E050E0CE0101960E9492
:104810001DD48981D7018D937D01F80184818F306A
:1048200028F0148283819FDFF8018383CA94DACF52
:104830008D2D8C19F80121813281280F311D328391
:1048400021830F90DF91CF911F910F91FF90EF90F7
:10485000DF90CF900895CF93DF938091280EC0E032
:10486000D0E0882319F02F967EDFFBCF8091880E51
:104870002091890E922F9F708C0F9D1FE0911E0B2F
:104880000E2E000CFF0B31969F01220F331FE20FFB
:10489000F31FE55DF14F20814181342F3F70821B72
:1048A000930B97FF02C080E090E0DF91CF910895D5
:1048B00070931C0860931B0890931A088093190842
:1048C0004F5F4093210EFB9A8091220E811101C00F
:1048D00008958091210E181614F4A895FACF089522
:1048E00093E0899FB00111246C5F7F4F90E09C01A1
:1048F000220F331F820F931F43E050E0865D914FDC
:10490000D7CFCF92DF92EF921F93CF93DF93162FE3
:10491000C82FD0E09E01220F331FC20FD31FCA5DE4
:10492000D14F2C813D814E81E62FF0E0BF01660F13
:10493000771FE60FF71FEA5DF14FC480D580E68050
:10494000CC82DD82EE8224833583468391E090938E
:10495000220EC6DF812FC4DF1092220EDF91CF918D
:104960001F91EF90DF90CF90089541E050E062E01A
:1049700070E088E29EE09CCF60931D0820E1829F5A
:10498000C0011124BC01605A7F4F41E050E08DE12D
:1049900098E08ECFCF93DF93D82FC82F8C2FE3DEF4
:1049A000882311F0C82FFACF6091280E8C2FE4DFF6
:1049B000D093280EDF91CF91D8CFCF93282F30E01E
:1049C000A901440F551F240F351FF901EA5DF14F6E
:1049D000C481F901E65DF14F10821182128291E0EB
:1049E0009093220E7DDFCC2311F08C2FD3DF109219
:1049F000220ECF9108951F920F920FB60F9211249D
:104A00000BB60F928F939F93EF93FF938091210E9C
:104A100081508093210E18160CF580911B089091FF
:104A20001C0892BD81BDE0911908F0911A0880819F
:104A300080BDFA9AF99A80911B0890911C08019602
:104A400090931C0880931B088091190890911A0874
:104A5000019690931A088093190801C0FB98FF9162
:104A6000EF919F918F910F900BBE0F900FBE0F9003
:104A70001F9018959091D00A892B8093D00A0E949C
:104A8000AC1B9093C7078093C6070895CF92DF921F
:104A9000EF92FF920F931F93CF93DF93EC01162FAA
:104AA000042F97FF07C089E791E00E943217D19544
:104AB000C195D109802F8073082E000C990B409767
:104AC00018161906ACF46AE070E0CE010E94B7D265
:104AD0006B017C01EB01E114F10451F040E060E076
:104AE000C601D4DFC7018C549E4F0E9432171DC0EF
:104AF000C83E83E0D807E4F0C03D87E0D8074CF01B
:104B0000CE0168EE73E00E94B7D2CB0140E060E0D6
:104B1000BDDF8DE691E00E943217CE0168EE73E0B2
:104B20000E94B7D2EC01892B19F4CFEFDFEF1BC045
:104B3000C436D105C4F0C83CD1054CF0CE0164E6C2
:104B400070E00E94B7D2CB0193950E94321784E6A1
:104B500091E00E943217CE0164E670E00E94B7D265
:104B6000EC01892B11F3CE016AE070E00E94B7D20C
:104B7000019749F4CA35D10544F407FF04C0CB01BD
:104B800082599E4F04C0D7FD04C0CE0193950E9468
:104B900032171123B9F08FEF810F8D3021F083315F
:104BA00019F486E001C084E08F5F90E084589E4F46
:104BB000DF91CF911F910F91FF90EF90DF90CF90F9
:104BC0000C943217DF91CF911F910F91FF90EF90CE
:104BD000DF90CF900895CF93DF93EC01009739F4E5
:104BE00040E860E080E090E0DF91CF914FCF97FF09
:104BF00007C089E791E00E943217D195C195D1098C
:104C0000CE0160E17EE00E94B7D2262FEC01662340
:104C100049F040E860E0822F90E038DF8BE891E0D7
:104C20000E943217CE016CE370E00E94B7D29B0164
:104C3000EC01672B79F040E860E0C90127DF8CE8E0
:104C400091E00E943217209789F088E791E00E9456
:104C5000321702C0892B51F040E860E0CE0116DF28
:104C60008DE891E0DF91CF910C943217DF91CF91D5
:104C7000089597FD02C0059601C005976AE070E0AF
:104C80000E94B7D2CB01089549E2489F9001499F05
:104C9000300D11243595279535952795492F441FBB
:104CA0004427441F50E0841B950B66E0959587953B
:104CB0006A95E1F7B901681B790BCB01841B950B51
:104CC0000895BC01660F771F492F441F4427441FD6
:104CD00050E09C01241B350BC90195958795860FE3
:104CE000971F840F951FF4E035952795FA95E1F706
:104CF000820F931F840F951F08950E94461B8823DF
:104D000011F0A895FACF80E3E6E9F7E0DF011D9204
:104D10008A95E9F71092F80B0895CF938E3108F039
:104D200088C0C82F0E94A419809105028F3F19F0F6
:104D300081E08093180881E08C0F8093960E10928A
:104D4000980E1092970E90E0FC01EE0FFF1F8E0F51
:104D50009F1FFC01EA5DF14F84818093990E1092B0
:104D60009A0E1092250E10929C0E10929B0E69EFD7
:104D700073E08AEA92E10E94A3A58F3F910509F0B2
:104D800088F489EF93E0EAEAF2E1DF019C011D92E9
:104D900021503040E1F70E94AD1481E00E944B4E5B
:104DA000C1E001C0C0E074D51092E1071092E007A5
:104DB000E8ECF7E080E090E88193919337E0E03E03
:104DC000F307D1F7809105028F3F59F0C11107C059
:104DD0000E94BF120E946A1B0E9481938EDF109274
:104DE000180885E3E3EEF7E0DF011D928A95E9F705
:104DF0008091B812869586958695837041F0809152
:104E0000B9129091BA129093E40A8093E30A8091C8
:104E1000BE12869586958695837041F08091BF126B
:104E20009091C0129093EC0A8093EB0A86E08093F5
:104E3000E207CF91089590913D0B935F8E3C11F462
:104E4000892FFCCF8F71803158F490E0FC01EE0F78
:104E5000FF1F8E0F9F1FFC01EA56F84F83E68283E7
:104E60000895FC019081990F611191609083818177
:104E70008F5F818382818823A9F0911113C08336CB
:104E800079F0BF01665977404BEA5AEA649F900176
:104E9000659F300D749F300D112420622093F80B14
:104EA000118212828281883009F445C050F4813029
:104EB00009F449C090F08230F1F1843009F061C00A
:104EC0003AC08F3521F118F48031A9F10895813667
:104ED00049F0823609F44FC008959F3009F051C05F
:104EE00081E64DC0AF01465957402BEA3AEA429F4E
:104EF000C001439F900D529F900D112480668093B6
:104F0000F80B10929407109293078FE538C08181B7
:104F1000803269F4E659F7404BEA5AEAE49F90017F
:104F2000E59F300DF49F300D1124206821C0883298
:104F300041F580E124C09181903328F090E095956F
:104F4000879582831182828190E00197218130E0F0
:104F500082239323892BA9F4E659F7404BEA5AEAB6
:104F6000E49F9001E59F300DF49F300D11242064E3
:104F70002093F80B08958181803418F088E08283B3
:104F800011820895282F30E82303C0011124FC0169
:104F9000E855F14F80E09081909591938F5F803834
:104FA000D1F70895EF92FF920F93CF93DF93C42F21
:104FB000D22F87FD67C047FF02C0640FC19567FF0E
:104FC00002C0C60F60E02C2F0C2E000C330B260FF6
:104FD000311D67FD3A952134310514F0C0E4C61B3C
:104FE000D53511F460FFDAEA262F2595259525950C
:104FF000E82EF12CC70130E82303800D911D112408
:105000009C012855314F7901962F9770F1F0E1E01E
:10501000F0E0BF01092E01C0660F0A94EAF798502C
:10502000C90FC7FD03C0E62FE19507C088E08C0FCC
:1050300001C0EE0F8A95EAF7E61B6E2F6D23402F15
:10504000C70129DB30E8E30EF11CC8304CF0402FDB
:105050006D2FC70120DB80E8E80EF11CC850F5CFAA
:105060001C1684F461E070E001C0660FCA95EAF78F
:1050700061506D23402FC701DF91CF910F91FF90B9
:10508000EF9009CBDF91CF910F91FF90EF900895B2
:10509000DF92EF92FF920F931F93CF93DF936034D1
:1050A00090F5C82FD0E0FE01E40FF11DE138F105C5
:1050B00014F040E8481B862F86958695869590E8E3
:1050C000899FC00DD11D1124677081E0D82E01C0C9
:1050D000DD0C6A95EAF7C855D14F1C2F140F1C1729
:1050E00091F0E22EF12C20FF09C0402F6D2DCE0152
:1050F000D2DA970135952795206803C0F594E79497
:105100002E2D2196ECCFDF91CF911F910F91FF9023
:10511000EF90DF900895262F26952695269590E00E
:1051200030E8239F800D911D11248855914FE2E1B5
:10513000883A9E0758F4677021E030E0F90102C018
:10514000EE0FFF1F6A95E2F7BF01A5CA08952F92DF
:105150003F924F925F926F927F928F929F92AF9207
:10516000BF92CF92DF92EF92FF920F931F93CF9354
:10517000DF93CDB7DEB727970FB6F894DEBF0FBE2B
:10518000CDBF8F83362F862F86958695869500E82E
:10519000809F40011124D4011F81A10FB11DA8558A
:1051A000B14F62EA7DE080E0992769837A838B833F
:1051B0009C83912F915090939207119720FF09C0E3
:1051C0005091A81256FF09C021FF15C1BB24B3940A
:1051D00005C021FBBB24B0F801C0B12C22FF5CC08C
:1051E00024ED240F2F3010F4E5ED0BC02FEB240F2E
:1051F0002A3110F4EFEC05C02FE9240F2A3118F4FE
:10520000E9ECE40F05C04F3511F4E4E001C0E0E043
:1052100002E518E020E0332774E1E79FA0011124A4
:10522000040F151F211D311DE12CE11008C08F81D5
:10523000882311F0B11017C09F5F119628C0EBE0D2
:10524000EE1689F02BBFF801F790B901A8014F5F66
:105250005F4F6F4F7F4F6BBFFA0147910E5F1F4F3C
:105260002F4F3F4F02C040E0F12C542F5F215F3F92
:1052700071F0BB2011F0F0944095FD01E058FF4F14
:1052800062E1E83AF60718F4FD9240839F5FE394E9
:105290007CE0E712CACFADC0E42FF0E0B09765E044
:1052A0006E9FA0016F9F500D1124052E000C660B00
:1052B000770BC980DA80EB80FC804C0D5D1D6E1D84
:1052C0007F1D3770A32EDB2CD1948401085D104F15
:1052D0001E830D83E32EF12CEFEFF0E04F0101C0B0
:1052E000880C3A95EAF78094782C7094912C122FC0
:1052F0001870612E822F8074898308E010E00E19E7
:105300001F092071911008C0CF80CC2011F0B1107E
:1053100019C09F5F119668C086E01A012B0198168C
:1053200069F0EFEF2E1A3E0A4E0A5E0A6BBFFA01D1
:1053300037913F3F21F4222309F454C030E0BB20D1
:1053400029F003C01A012B0130E03095B201A10110
:10535000662021F0F2E09F1609F446C0C980E32FD1
:10536000CC2031F0BB2011F0ED2103C0ED2901C0AC
:105370003D2D82E1A83AB80788F5CD80DE80AC15D6
:10538000BD0560F5F0E06F010E2C01C0CC0C0A9455
:10539000EAF75C9058205C285C92AA20F9F06D0135
:1053A00080E8C80ED11C88EAC81682E1D80670F4DD
:1053B0001F01002E02C0359427940A94E2F7F601EB
:1053C0008081F82FF7212F2AF6012082BB2031F0AF
:1053D000F1E0AF1203C0E52DE160EC9311969F5F01
:1053E000D32E02C0B201A101939487E0C82E9C1075
:1053F00089CF9093920727960FB6F894DEBF0FBE21
:10540000CDBFDF91CF911F910F91FF90EF90DF9073
:10541000CF90BF90AF909F908F907F906F905F9054
:105420004F903F902F900895CF92DF92EF92FF928E
:105430000F931F93CF93DF93D82F162F942FA9018B
:10544000C92ED12C2BE2C216D10408F049C0F601B6
:105450008827EB55FF4F8F4F0C9486D4202F2F7B3E
:10546000022F8D2F0E941BA052C09751CBEFC90F66
:10547000BA018C2F0E94AF4A46E0C49FF00111246C
:10548000E658F94EC081C295CF70C33010F0F1DB01
:105490000AC09C0129513C4F2F3C374010F4006357
:1054A00002C0E7DB00622C2F12C0006301C0006263
:1054B00020E02AC0006221E027C029E025C02AE0C0
:1054C00023C0006309C0CA01D4DB006223E0AC0141
:1054D0001BC000622DE018C023E016C023E114C0F9
:1054E0008FED890F843010F4975102C09F3018F46B
:1054F000E9EFE90F01C0E1E09E51923008F4E0E0ED
:10550000F0E0E65BF74F2491612F8D2FD4D8DF9127
:10551000CF911F910F91FF90EF90DF90CF90089562
:105520000F93922F202F3FE0439FF0011124E90FAA
:10553000F11DEE0FFF1FE355FA4E0190F081E02DB3
:10554000E93E33E0F30744F097E19E0F941710F023
:1055500098E19E0F40E301C041E6490F0F91F7CD5E
:105560000F939FE0499FF0011124E20FF11DEE0F10
:10557000FF1FE356FA4E0190F081E02DE53F91E0E8
:10558000F9075CF09BE09E0F941710F09CE09E0FD3
:1055900040E3490F202F0F91DACD43EA50E10E94FA
:1055A000EBA00F9108950F9347FD0BC0453044F4D5
:1055B000022F242F41E754E10E94EBA00F910895A0
:1055C00044500F910C94F9A01F920F920FB60F92B6
:1055D00011240BB60F928F93EF93FF93E091D10AB2
:1055E000EE2351F0E150E093D10AF0E0EE52F54F96
:1055F00080818093C60005C08091C1008F7D80931B
:10560000C100FF91EF918F910F900BBE0F900FBED5
:105610000F901F9018951F920F920FB60F921124A2
:105620000BB60F922F933F934F935F936F937F939C
:105630008F939F93AF93BF93EF93FF932091960027
:1056400030919700809171008F7D809371007894E4
:105650008091870890918808A901481B590BCA01BD
:105660009695879530938808209387089C01215A46
:105670003F4027393A4320F481E08093860832C0C6
:10568000E09186082FEF2E0F283060F59C01215203
:1056900033402737354020F524E620931D0C21E0C8
:1056A0002E0F20938608F0E0EE0FFF1FEE53F34F0E
:1056B0009C012C5D354040913B0B042E000C550B9A
:1056C000465F5F4F249FC001259F900D349F900D32
:1056D00011246AE070E00E94B7D27183608302C037
:1056E00010928608F8948091710080628093710016
:1056F000FF91EF91BF91AF919F918F917F916F91AA
:105700005F914F913F912F910F900BBE0F900FBE65
:105710000F901F90189578941F920F920FB60F92CA
:1057200011240BB60F922F933F934F935F936F9378
:105730007F938F939F93AF93BF93EF93FF9380914A
:105740001E08882369F090918408911105C0809308
:10575000840891E090938308815080931E0820C0B4
:10576000809182088823B1F020918408222391F04F
:1057700091E030918308311190E09093830891116A
:1057800001C028E020931E08992351F08150809396
:10579000820806C0109284081092830810921505A2
:1057A00080918308882381F080911505882321F05A
:1057B0009091810881E0892780938108811104C03C
:1057C00080910201886003C080910201877F8093ED
:1057D00002018091210890912208892B51F080913B
:1057E0002108909122080197909322088093210824
:1057F00008C09091200880911F08981711F01F9BF6
:1058000024C00E941215809185088F5F80938508BF
:10581000837011F09CE901C09DE98091B300890F6C
:105820008093B300FF91EF91BF91AF919F918F91C2
:105830007F916F915F914F913F912F910F900BBE90
:105840000F900FBE0F901F9018958091D10080622D
:105850008093D100D6CF209180088091B2009091A2
:1058600080082913F8CF90E0922B089578941F9226
:105870000F920FB60F9211248F93809180088F5F43
:10588000809380088F910F900FBE0F901F901895F6
:105890008091B8128871803119F080E00E942F4EFB
:1058A0008091BE128871803119F081E00E942F4EE4
:1058B0000E949D471092140C10921E0E10921D0E05
:1058C00010921C0E10921B0E109276081092750802
:1058D0001092780810927708109274081092160EA1
:1058E0001092180E1092170E08952F923F924F9219
:1058F0005F926F927F928F929F92AF92BF92CF9260
:10590000DF92EF92FF920F931F93CF93DF93CDB768
:10591000DEB72D970FB6F894DEBF0FBECDBF0E9445
:10592000AC1B20917E0830917F088217930720F0EE
:10593000482F421B4B8302C051E05B8390937F084A
:1059400080937E080E94A7991092AA161092A91619
:105950000E947B148C8370910602781709F454C05E
:10596000282F30E07F3F09F443C0472F50E08EE1FD
:10597000849FF001859FF00D1124E455FA4E60815B
:10598000829FF001839FF00D1124E455FA4E80812F
:105990008F7062956F70681708F4682F81E090E04F
:1059A000DC010C8002C0AA0FBB1F0A94E2F701C001
:1059B000880F7A95EAF78A0F90916708662369F055
:1059C000892B8093670870E08EE195E00E94CAD22F
:1059D000709366086093650814C08095892380934E
:1059E0006708440F551FFA01E859F74F11821082DA
:1059F000220F331FF901E859F74F8FEF9FEF918383
:105A000080838C818093060200916708002309F44B
:105A100073C080E4E5E2F8E0DF011D928A95E9F7C2
:105A200028E6E22E28E0F22E212C312C812C912C1C
:105A3000540110E0922D1092AA161092A916980106
:105A4000022C02C0359527950A94E2F720FF41C049
:105A500020928C0DBC812B1202C06B8101C060E0D2
:105A600081E0EC819E1301C080E00E94D252D701F8
:105A70004D905C90612C712C9FE8C92E9AE0D92E34
:105A8000E5E2F8E0D6012D913D914D915D916D01DA
:105A900084E055954795379527958A95D1F7C301A9
:105AA000B2010E942DD42081318142815381DC01D9
:105AB000CB01820F931FA41FB51F81939193A193D4
:105AC000B193B8E0E536FB07E9F6840C951CA61CFB
:105AD000B71C1092AA161092A916EFEF2E1A3E0AC2
